{
  "_format": "hh-sol-artifact-1",
  "contractName": "KYC",
  "sourceName": "contracts/KYC.sol",
  "abi": [
    {
      "inputs": [
        {
          "internalType": "string",
          "name": "name_",
          "type": "string"
        },
        {
          "internalType": "string",
          "name": "email_",
          "type": "string"
        }
      ],
      "stateMutability": "nonpayable",
      "type": "constructor"
    },
    {
      "anonymous": false,
      "inputs": [
        {
          "indexed": false,
          "internalType": "address",
          "name": "id_",
          "type": "address"
        },
        {
          "indexed": false,
          "internalType": "string",
          "name": "name",
          "type": "string"
        }
      ],
      "name": "BankActivated",
      "type": "event"
    },
    {
      "anonymous": false,
      "inputs": [
        {
          "indexed": false,
          "internalType": "address",
          "name": "id_",
          "type": "address"
        },
        {
          "indexed": false,
          "internalType": "string",
          "name": "name",
          "type": "string"
        },
        {
          "indexed": false,
          "internalType": "string",
          "name": "email",
          "type": "string"
        },
        {
          "indexed": false,
          "internalType": "string",
          "name": "ifscCode",
          "type": "string"
        }
      ],
      "name": "BankAdded",
      "type": "event"
    },
    {
      "anonymous": false,
      "inputs": [
        {
          "indexed": false,
          "internalType": "address",
          "name": "id_",
          "type": "address"
        },
        {
          "indexed": false,
          "internalType": "string",
          "name": "name",
          "type": "string"
        }
      ],
      "name": "BankDeactivated",
      "type": "event"
    },
    {
      "anonymous": false,
      "inputs": [
        {
          "indexed": false,
          "internalType": "address",
          "name": "id_",
          "type": "address"
        },
        {
          "indexed": false,
          "internalType": "string",
          "name": "name",
          "type": "string"
        },
        {
          "indexed": false,
          "internalType": "string",
          "name": "email",
          "type": "string"
        }
      ],
      "name": "BankUpdated",
      "type": "event"
    },
    {
      "anonymous": false,
      "inputs": [
        {
          "indexed": false,
          "internalType": "address",
          "name": "id_",
          "type": "address"
        },
        {
          "indexed": false,
          "internalType": "string",
          "name": "name",
          "type": "string"
        },
        {
          "indexed": false,
          "internalType": "string",
          "name": "email",
          "type": "string"
        }
      ],
      "name": "CustomerAdded",
      "type": "event"
    },
    {
      "anonymous": false,
      "inputs": [
        {
          "indexed": false,
          "internalType": "address",
          "name": "id_",
          "type": "address"
        },
        {
          "indexed": false,
          "internalType": "string",
          "name": "name",
          "type": "string"
        },
        {
          "indexed": false,
          "internalType": "string",
          "name": "email",
          "type": "string"
        }
      ],
      "name": "CustomerDataUpdated",
      "type": "event"
    },
    {
      "anonymous": false,
      "inputs": [
        {
          "indexed": false,
          "internalType": "string",
          "name": "reqId",
          "type": "string"
        },
        {
          "indexed": false,
          "internalType": "address",
          "name": "customerId",
          "type": "address"
        },
        {
          "indexed": false,
          "internalType": "address",
          "name": "bankId",
          "type": "address"
        },
        {
          "indexed": false,
          "internalType": "enum Types.DataHashStatus",
          "name": "status",
          "type": "uint8"
        }
      ],
      "name": "DataHashPermissionChanged",
      "type": "event"
    },
    {
      "anonymous": false,
      "inputs": [
        {
          "indexed": false,
          "internalType": "address",
          "name": "id_",
          "type": "address"
        },
        {
          "indexed": false,
          "internalType": "string",
          "name": "customerName",
          "type": "string"
        },
        {
          "indexed": false,
          "internalType": "string",
          "name": "dataHash",
          "type": "string"
        }
      ],
      "name": "DataHashUpdated",
      "type": "event"
    },
    {
      "anonymous": false,
      "inputs": [
        {
          "indexed": false,
          "internalType": "string",
          "name": "reqId",
          "type": "string"
        },
        {
          "indexed": false,
          "internalType": "string",
          "name": "bankName",
          "type": "string"
        },
        {
          "indexed": false,
          "internalType": "string",
          "name": "customerName",
          "type": "string"
        }
      ],
      "name": "KycReRequested",
      "type": "event"
    },
    {
      "anonymous": false,
      "inputs": [
        {
          "indexed": false,
          "internalType": "string",
          "name": "reqId",
          "type": "string"
        },
        {
          "indexed": false,
          "internalType": "string",
          "name": "bankName",
          "type": "string"
        },
        {
          "indexed": false,
          "internalType": "string",
          "name": "customerName",
          "type": "string"
        }
      ],
      "name": "KycRequestAdded",
      "type": "event"
    },
    {
      "anonymous": false,
      "inputs": [
        {
          "indexed": false,
          "internalType": "string",
          "name": "reqId",
          "type": "string"
        },
        {
          "indexed": false,
          "internalType": "address",
          "name": "customerId",
          "type": "address"
        },
        {
          "indexed": false,
          "internalType": "address",
          "name": "bankId",
          "type": "address"
        },
        {
          "indexed": false,
          "internalType": "enum Types.KycStatus",
          "name": "status",
          "type": "uint8"
        }
      ],
      "name": "KycStatusChanged",
      "type": "event"
    },
    {
      "inputs": [
        {
          "internalType": "address",
          "name": "bankId_",
          "type": "address"
        },
        {
          "internalType": "bool",
          "name": "approve_",
          "type": "bool"
        },
        {
          "internalType": "string",
          "name": "note_",
          "type": "string"
        }
      ],
      "name": "actionOnKycRequest",
      "outputs": [],
      "stateMutability": "nonpayable",
      "type": "function"
    },
    {
      "inputs": [
        {
          "internalType": "address",
          "name": "id_",
          "type": "address"
        },
        {
          "internalType": "bool",
          "name": "makeActive_",
          "type": "bool"
        }
      ],
      "name": "activateDeactivateBank",
      "outputs": [],
      "stateMutability": "nonpayable",
      "type": "function"
    },
    {
      "inputs": [
        {
          "components": [
            {
              "internalType": "string",
              "name": "name",
              "type": "string"
            },
            {
              "internalType": "string",
              "name": "email",
              "type": "string"
            },
            {
              "internalType": "address",
              "name": "id_",
              "type": "address"
            },
            {
              "internalType": "string",
              "name": "ifscCode",
              "type": "string"
            },
            {
              "internalType": "uint16",
              "name": "kycCount",
              "type": "uint16"
            },
            {
              "internalType": "enum Types.BankStatus",
              "name": "status",
              "type": "uint8"
            }
          ],
          "internalType": "struct Types.Banks",
          "name": "bank_",
          "type": "tuple"
        }
      ],
      "name": "addBank",
      "outputs": [],
      "stateMutability": "nonpayable",
      "type": "function"
    },
    {
      "inputs": [
        {
          "components": [
            {
              "internalType": "string",
              "name": "name",
              "type": "string"
            },
            {
              "internalType": "string",
              "name": "email",
              "type": "string"
            },
            {
              "internalType": "uint256",
              "name": "mobileNumber",
              "type": "uint256"
            },
            {
              "internalType": "address",
              "name": "id_",
              "type": "address"
            },
            {
              "internalType": "address",
              "name": "kycVerifiedBy",
              "type": "address"
            },
            {
              "internalType": "string",
              "name": "dataHash",
              "type": "string"
            },
            {
              "internalType": "uint256",
              "name": "dataUpdatedOn",
              "type": "uint256"
            }
          ],
          "internalType": "struct Types.Customer",
          "name": "customer_",
          "type": "tuple"
        },
        {
          "internalType": "uint256",
          "name": "currentTime_",
          "type": "uint256"
        },
        {
          "internalType": "string",
          "name": "notes_",
          "type": "string"
        }
      ],
      "name": "addKycRequest",
      "outputs": [],
      "stateMutability": "nonpayable",
      "type": "function"
    },
    {
      "inputs": [
        {
          "internalType": "uint256",
          "name": "pageNumber",
          "type": "uint256"
        }
      ],
      "name": "getAllBanks",
      "outputs": [
        {
          "internalType": "uint256",
          "name": "totalPages",
          "type": "uint256"
        },
        {
          "components": [
            {
              "internalType": "string",
              "name": "name",
              "type": "string"
            },
            {
              "internalType": "string",
              "name": "email",
              "type": "string"
            },
            {
              "internalType": "address",
              "name": "id_",
              "type": "address"
            },
            {
              "internalType": "string",
              "name": "ifscCode",
              "type": "string"
            },
            {
              "internalType": "uint16",
              "name": "kycCount",
              "type": "uint16"
            },
            {
              "internalType": "enum Types.BankStatus",
              "name": "status",
              "type": "uint8"
            }
          ],
          "internalType": "struct Types.Banks[]",
          "name": "",
          "type": "tuple[]"
        }
      ],
      "stateMutability": "view",
      "type": "function"
    },
    {
      "inputs": [
        {
          "internalType": "address",
          "name": "id_",
          "type": "address"
        }
      ],
      "name": "getBankDetails",
      "outputs": [
        {
          "components": [
            {
              "internalType": "string",
              "name": "name",
              "type": "string"
            },
            {
              "internalType": "string",
              "name": "email",
              "type": "string"
            },
            {
              "internalType": "address",
              "name": "id_",
              "type": "address"
            },
            {
              "internalType": "string",
              "name": "ifscCode",
              "type": "string"
            },
            {
              "internalType": "uint16",
              "name": "kycCount",
              "type": "uint16"
            },
            {
              "internalType": "enum Types.BankStatus",
              "name": "status",
              "type": "uint8"
            }
          ],
          "internalType": "struct Types.Banks",
          "name": "",
          "type": "tuple"
        }
      ],
      "stateMutability": "view",
      "type": "function"
    },
    {
      "inputs": [
        {
          "internalType": "uint256",
          "name": "pageNumber",
          "type": "uint256"
        }
      ],
      "name": "getBankRequests",
      "outputs": [
        {
          "internalType": "uint256",
          "name": "totalPages",
          "type": "uint256"
        },
        {
          "components": [
            {
              "internalType": "string",
              "name": "id_",
              "type": "string"
            },
            {
              "internalType": "address",
              "name": "userId_",
              "type": "address"
            },
            {
              "internalType": "string",
              "name": "customerName",
              "type": "string"
            },
            {
              "internalType": "address",
              "name": "bankId_",
              "type": "address"
            },
            {
              "internalType": "string",
              "name": "bankName",
              "type": "string"
            },
            {
              "internalType": "string",
              "name": "dataHash",
              "type": "string"
            },
            {
              "internalType": "uint256",
              "name": "updatedOn",
              "type": "uint256"
            },
            {
              "internalType": "enum Types.KycStatus",
              "name": "status",
              "type": "uint8"
            },
            {
              "internalType": "enum Types.DataHashStatus",
              "name": "dataRequest",
              "type": "uint8"
            },
            {
              "internalType": "string",
              "name": "additionalNotes",
              "type": "string"
            }
          ],
          "internalType": "struct Types.KycRequest[]",
          "name": "",
          "type": "tuple[]"
        }
      ],
      "stateMutability": "view",
      "type": "function"
    },
    {
      "inputs": [
        {
          "internalType": "address",
          "name": "id_",
          "type": "address"
        }
      ],
      "name": "getCustomerDetails",
      "outputs": [
        {
          "components": [
            {
              "internalType": "string",
              "name": "name",
              "type": "string"
            },
            {
              "internalType": "string",
              "name": "email",
              "type": "string"
            },
            {
              "internalType": "uint256",
              "name": "mobileNumber",
              "type": "uint256"
            },
            {
              "internalType": "address",
              "name": "id_",
              "type": "address"
            },
            {
              "internalType": "address",
              "name": "kycVerifiedBy",
              "type": "address"
            },
            {
              "internalType": "string",
              "name": "dataHash",
              "type": "string"
            },
            {
              "internalType": "uint256",
              "name": "dataUpdatedOn",
              "type": "uint256"
            }
          ],
          "internalType": "struct Types.Customer",
          "name": "",
          "type": "tuple"
        }
      ],
      "stateMutability": "view",
      "type": "function"
    },
    {
      "inputs": [
        {
          "internalType": "uint256",
          "name": "pageNumber",
          "type": "uint256"
        }
      ],
      "name": "getCustomersOfBank",
      "outputs": [
        {
          "internalType": "uint256",
          "name": "totalPages",
          "type": "uint256"
        },
        {
          "components": [
            {
              "internalType": "string",
              "name": "id_",
              "type": "string"
            },
            {
              "internalType": "address",
              "name": "userId_",
              "type": "address"
            },
            {
              "internalType": "string",
              "name": "customerName",
              "type": "string"
            },
            {
              "internalType": "address",
              "name": "bankId_",
              "type": "address"
            },
            {
              "internalType": "string",
              "name": "bankName",
              "type": "string"
            },
            {
              "internalType": "string",
              "name": "dataHash",
              "type": "string"
            },
            {
              "internalType": "uint256",
              "name": "updatedOn",
              "type": "uint256"
            },
            {
              "internalType": "enum Types.KycStatus",
              "name": "status",
              "type": "uint8"
            },
            {
              "internalType": "enum Types.DataHashStatus",
              "name": "dataRequest",
              "type": "uint8"
            },
            {
              "internalType": "string",
              "name": "additionalNotes",
              "type": "string"
            }
          ],
          "internalType": "struct Types.KycRequest[]",
          "name": "",
          "type": "tuple[]"
        }
      ],
      "stateMutability": "view",
      "type": "function"
    },
    {
      "inputs": [
        {
          "internalType": "address",
          "name": "id_",
          "type": "address"
        },
        {
          "internalType": "string",
          "name": "notes_",
          "type": "string"
        }
      ],
      "name": "reRequestForKycRequest",
      "outputs": [],
      "stateMutability": "nonpayable",
      "type": "function"
    },
    {
      "inputs": [
        {
          "internalType": "address",
          "name": "bankId_",
          "type": "address"
        },
        {
          "internalType": "string",
          "name": "notes_",
          "type": "string"
        }
      ],
      "name": "removerDatahashPermission",
      "outputs": [],
      "stateMutability": "nonpayable",
      "type": "function"
    },
    {
      "inputs": [
        {
          "internalType": "address",
          "name": "bankId_",
          "type": "address"
        }
      ],
      "name": "searchBanks",
      "outputs": [
        {
          "internalType": "bool",
          "name": "",
          "type": "bool"
        },
        {
          "components": [
            {
              "internalType": "string",
              "name": "name",
              "type": "string"
            },
            {
              "internalType": "string",
              "name": "email",
              "type": "string"
            },
            {
              "internalType": "address",
              "name": "id_",
              "type": "address"
            },
            {
              "internalType": "string",
              "name": "ifscCode",
              "type": "string"
            },
            {
              "internalType": "uint16",
              "name": "kycCount",
              "type": "uint16"
            },
            {
              "internalType": "enum Types.BankStatus",
              "name": "status",
              "type": "uint8"
            }
          ],
          "internalType": "struct Types.Banks",
          "name": "",
          "type": "tuple"
        },
        {
          "components": [
            {
              "internalType": "string",
              "name": "id_",
              "type": "string"
            },
            {
              "internalType": "address",
              "name": "userId_",
              "type": "address"
            },
            {
              "internalType": "string",
              "name": "customerName",
              "type": "string"
            },
            {
              "internalType": "address",
              "name": "bankId_",
              "type": "address"
            },
            {
              "internalType": "string",
              "name": "bankName",
              "type": "string"
            },
            {
              "internalType": "string",
              "name": "dataHash",
              "type": "string"
            },
            {
              "internalType": "uint256",
              "name": "updatedOn",
              "type": "uint256"
            },
            {
              "internalType": "enum Types.KycStatus",
              "name": "status",
              "type": "uint8"
            },
            {
              "internalType": "enum Types.DataHashStatus",
              "name": "dataRequest",
              "type": "uint8"
            },
            {
              "internalType": "string",
              "name": "additionalNotes",
              "type": "string"
            }
          ],
          "internalType": "struct Types.KycRequest",
          "name": "",
          "type": "tuple"
        }
      ],
      "stateMutability": "view",
      "type": "function"
    },
    {
      "inputs": [
        {
          "internalType": "address",
          "name": "id_",
          "type": "address"
        }
      ],
      "name": "searchCustomers",
      "outputs": [
        {
          "internalType": "bool",
          "name": "",
          "type": "bool"
        },
        {
          "components": [
            {
              "internalType": "string",
              "name": "name",
              "type": "string"
            },
            {
              "internalType": "string",
              "name": "email",
              "type": "string"
            },
            {
              "internalType": "uint256",
              "name": "mobileNumber",
              "type": "uint256"
            },
            {
              "internalType": "address",
              "name": "id_",
              "type": "address"
            },
            {
              "internalType": "address",
              "name": "kycVerifiedBy",
              "type": "address"
            },
            {
              "internalType": "string",
              "name": "dataHash",
              "type": "string"
            },
            {
              "internalType": "uint256",
              "name": "dataUpdatedOn",
              "type": "uint256"
            }
          ],
          "internalType": "struct Types.Customer",
          "name": "",
          "type": "tuple"
        },
        {
          "components": [
            {
              "internalType": "string",
              "name": "id_",
              "type": "string"
            },
            {
              "internalType": "address",
              "name": "userId_",
              "type": "address"
            },
            {
              "internalType": "string",
              "name": "customerName",
              "type": "string"
            },
            {
              "internalType": "address",
              "name": "bankId_",
              "type": "address"
            },
            {
              "internalType": "string",
              "name": "bankName",
              "type": "string"
            },
            {
              "internalType": "string",
              "name": "dataHash",
              "type": "string"
            },
            {
              "internalType": "uint256",
              "name": "updatedOn",
              "type": "uint256"
            },
            {
              "internalType": "enum Types.KycStatus",
              "name": "status",
              "type": "uint8"
            },
            {
              "internalType": "enum Types.DataHashStatus",
              "name": "dataRequest",
              "type": "uint8"
            },
            {
              "internalType": "string",
              "name": "additionalNotes",
              "type": "string"
            }
          ],
          "internalType": "struct Types.KycRequest",
          "name": "",
          "type": "tuple"
        }
      ],
      "stateMutability": "view",
      "type": "function"
    },
    {
      "inputs": [
        {
          "internalType": "address",
          "name": "id_",
          "type": "address"
        },
        {
          "internalType": "string",
          "name": "email_",
          "type": "string"
        },
        {
          "internalType": "string",
          "name": "name_",
          "type": "string"
        }
      ],
      "name": "updateBankDetails",
      "outputs": [],
      "stateMutability": "nonpayable",
      "type": "function"
    },
    {
      "inputs": [
        {
          "internalType": "string",
          "name": "hash_",
          "type": "string"
        },
        {
          "internalType": "uint256",
          "name": "currentTime_",
          "type": "uint256"
        }
      ],
      "name": "updateDatahash",
      "outputs": [],
      "stateMutability": "nonpayable",
      "type": "function"
    },
    {
      "inputs": [
        {
          "internalType": "address",
          "name": "userId_",
          "type": "address"
        },
        {
          "internalType": "bool",
          "name": "verified_",
          "type": "bool"
        },
        {
          "internalType": "string",
          "name": "note_",
          "type": "string"
        }
      ],
      "name": "updateKycVerification",
      "outputs": [],
      "stateMutability": "nonpayable",
      "type": "function"
    },
    {
      "inputs": [
        {
          "internalType": "string",
          "name": "name_",
          "type": "string"
        },
        {
          "internalType": "string",
          "name": "email_",
          "type": "string"
        },
        {
          "internalType": "uint256",
          "name": "mobile_",
          "type": "uint256"
        }
      ],
      "name": "updateProfile",
      "outputs": [],
      "stateMutability": "nonpayable",
      "type": "function"
    },
    {
      "inputs": [],
      "name": "whoAmI",
      "outputs": [
        {
          "components": [
            {
              "internalType": "string",
              "name": "name",
              "type": "string"
            },
            {
              "internalType": "string",
              "name": "email",
              "type": "string"
            },
            {
              "internalType": "address",
              "name": "id_",
              "type": "address"
            },
            {
              "internalType": "enum Types.Role",
              "name": "role",
              "type": "uint8"
            },
            {
              "internalType": "enum Types.BankStatus",
              "name": "status",
              "type": "uint8"
            }
          ],
          "internalType": "struct Types.User",
          "name": "",
          "type": "tuple"
        }
      ],
      "stateMutability": "view",
      "type": "function"
    }
  ],
  "bytecode": "0x60806040523480156200001157600080fd5b506040516200a0c13803806200a0c183398181016040528101906200003791906200046a565b33600460006101000a81548173ffffffffffffffffffffffffffffffffffffffff021916908373ffffffffffffffffffffffffffffffffffffffff16021790555060006040518060a00160405280848152602001838152602001600460009054906101000a900473ffffffffffffffffffffffffffffffffffffffff1673ffffffffffffffffffffffffffffffffffffffff16815260200160006002811115620000e657620000e5620004ef565b5b815260200160006001811115620001025762000101620004ef565b5b81525090508060066000600460009054906101000a900473ffffffffffffffffffffffffffffffffffffffff1673ffffffffffffffffffffffffffffffffffffffff1673ffffffffffffffffffffffffffffffffffffffff168152602001908152602001600020600082015181600001908162000180919062000769565b50602082015181600101908162000198919062000769565b5060408201518160020160006101000a81548173ffffffffffffffffffffffffffffffffffffffff021916908373ffffffffffffffffffffffffffffffffffffffff16021790555060608201518160020160146101000a81548160ff021916908360028111156200020e576200020d620004ef565b5b021790555060808201518160020160156101000a81548160ff02191690836001811115620002415762000240620004ef565b5b02179055509050506005600460009054906101000a900473ffffffffffffffffffffffffffffffffffffffff169080600181540180825580915050600190039060005260206000200160009091909190916101000a81548173ffffffffffffffffffffffffffffffffffffffff021916908373ffffffffffffffffffffffffffffffffffffffff16021790555050505062000850565b6000604051905090565b600080fd5b600080fd5b600080fd5b600080fd5b6000601f19601f8301169050919050565b7f4e487b7100000000000000000000000000000000000000000000000000000000600052604160045260246000fd5b6200034082620002f5565b810181811067ffffffffffffffff8211171562000362576200036162000306565b5b80604052505050565b600062000377620002d7565b905062000385828262000335565b919050565b600067ffffffffffffffff821115620003a857620003a762000306565b5b620003b382620002f5565b9050602081019050919050565b60005b83811015620003e0578082015181840152602081019050620003c3565b60008484015250505050565b600062000403620003fd846200038a565b6200036b565b905082815260208101848484011115620004225762000421620002f0565b5b6200042f848285620003c0565b509392505050565b600082601f8301126200044f576200044e620002eb565b5b815162000461848260208601620003ec565b91505092915050565b60008060408385031215620004845762000483620002e1565b5b600083015167ffffffffffffffff811115620004a557620004a4620002e6565b5b620004b38582860162000437565b925050602083015167ffffffffffffffff811115620004d757620004d6620002e6565b5b620004e58582860162000437565b9150509250929050565b7f4e487b7100000000000000000000000000000000000000000000000000000000600052602160045260246000fd5b600081519050919050565b7f4e487b7100000000000000000000000000000000000000000000000000000000600052602260045260246000fd5b600060028204905060018216806200057157607f821691505b60208210810362000587576200058662000529565b5b50919050565b60008190508160005260206000209050919050565b60006020601f8301049050919050565b600082821b905092915050565b600060088302620005f17fffffffffffffffffffffffffffffffffffffffffffffffffffffffffffffffff82620005b2565b620005fd8683620005b2565b95508019841693508086168417925050509392505050565b6000819050919050565b6000819050919050565b60006200064a620006446200063e8462000615565b6200061f565b62000615565b9050919050565b6000819050919050565b620006668362000629565b6200067e620006758262000651565b848454620005bf565b825550505050565b600090565b6200069562000686565b620006a28184846200065b565b505050565b5b81811015620006ca57620006be6000826200068b565b600181019050620006a8565b5050565b601f8211156200071957620006e3816200058d565b620006ee84620005a2565b81016020851015620006fe578190505b620007166200070d85620005a2565b830182620006a7565b50505b505050565b600082821c905092915050565b60006200073e600019846008026200071e565b1980831691505092915050565b60006200075983836200072b565b9150826002028217905092915050565b62000774826200051e565b67ffffffffffffffff81111562000790576200078f62000306565b5b6200079c825462000558565b620007a9828285620006ce565b600060209050601f831160018114620007e15760008415620007cc578287015190505b620007d885826200074b565b86555062000848565b601f198416620007f1866200058d565b60005b828110156200081b57848901518255600182019150602085019450602081019050620007f4565b868310156200083b578489015162000837601f8916826200072b565b8355505b6001600288020188555050505b505050505050565b61986180620008606000396000f3fe608060405234801561001057600080fd5b50600436106101165760003560e01c80635f4d6ddf116100a2578063b374a7dd11610071578063b374a7dd146102f0578063baa2b9fd1461030c578063da91254c1461033d578063dbc671d01461035b578063dc57d07e1461038c57610116565b80635f4d6ddf1461026a57806377fa069c1461029c5780637c1d6197146102b85780638915fb0c146102d457610116565b80632ce23acb116100e95780632ce23acb146101b357806334b52411146101e5578063369ba32b146102015780633f2c0e961461021d5780634d82d8e81461023957610116565b80630c60f83d1461011b57806315101e021461014b5780631bdd5a0f1461017b5780632283db9c14610197575b600080fd5b6101356004803603810190610130919061767a565b6103a8565b6040516101429190617809565b60405180910390f35b6101656004803603810190610160919061767a565b610625565b6040516101729190617956565b60405180910390f35b61019560048036038101906101909190617aad565b610896565b005b6101b160048036038101906101ac9190617c58565b610c86565b005b6101cd60048036038101906101c8919061767a565b610f11565b6040516101dc93929190617e42565b60405180910390f35b6101ff60048036038101906101fa9190617eb3565b61198b565b005b61021b60048036038101906102169190617f22565b611f71565b005b61023760048036038101906102329190617aad565b6120b1565b005b610253600480360381019061024e9190617fd9565b612428565b60405161026192919061816e565b60405180910390f35b610284600480360381019061027f919061767a565b6124ce565b6040516102939392919061819e565b60405180910390f35b6102b660048036038101906102b191906182eb565b612eda565b005b6102d260048036038101906102cd9190618376565b61377d565b005b6102ee60048036038101906102e99190618401565b613a92565b005b61030a6004803603810190610305919061845d565b613f29565b005b61032660048036038101906103219190617fd9565b614030565b604051610334929190618655565b60405180910390f35b6103456142a1565b604051610352919061874a565b60405180910390f35b61037560048036038101906103709190617fd9565b614628565b604051610383929190618655565b60405180910390f35b6103a660048036038101906103a19190617eb3565b6148a5565b005b6103b0617431565b81600073ffffffffffffffffffffffffffffffffffffffff168173ffffffffffffffffffffffffffffffffffffffff1603610420576040517f08c379a0000000000000000000000000000000000000000000000000000000008152600401610417906187c9565b60405180910390fd5b600073ffffffffffffffffffffffffffffffffffffffff16600160008373ffffffffffffffffffffffffffffffffffffffff1673ffffffffffffffffffffffffffffffffffffffff16815260200190815260200160002060030160009054906101000a900473ffffffffffffffffffffffffffffffffffffffff1673ffffffffffffffffffffffffffffffffffffffff16036104f1576040517f08c379a00000000000000000000000000000000000000000000000000000000081526004016104e890618835565b60405180910390fd5b6105d4600160008373ffffffffffffffffffffffffffffffffffffffff1673ffffffffffffffffffffffffffffffffffffffff168152602001908152602001600020600101805461054190618884565b80601f016020809104026020016040519081016040528092919081815260200182805461056d90618884565b80156105ba5780601f1061058f576101008083540402835291602001916105ba565b820191906000526020600020905b81548152906001019060200180831161059d57829003601f168201915b505050505060405180602001604052806000815250614c38565b15610614576040517f08c379a000000000000000000000000000000000000000000000000000000000815260040161060b90618901565b60405180910390fd5b61061d83614c91565b915050919050565b61062d61749a565b81600073ffffffffffffffffffffffffffffffffffffffff16600360008373ffffffffffffffffffffffffffffffffffffffff1673ffffffffffffffffffffffffffffffffffffffff16815260200190815260200160002060020160009054906101000a900473ffffffffffffffffffffffffffffffffffffffff1673ffffffffffffffffffffffffffffffffffffffff16036106ff576040517f08c379a00000000000000000000000000000000000000000000000000000000081526004016106f69061896d565b60405180910390fd5b8073ffffffffffffffffffffffffffffffffffffffff16600360008373ffffffffffffffffffffffffffffffffffffffff1673ffffffffffffffffffffffffffffffffffffffff16815260200190815260200160002060020160009054906101000a900473ffffffffffffffffffffffffffffffffffffffff1673ffffffffffffffffffffffffffffffffffffffff16146107cf576040517f08c379a00000000000000000000000000000000000000000000000000000000081526004016107c69061896d565b60405180910390fd5b600060018111156107e3576107e2617848565b5b600360008373ffffffffffffffffffffffffffffffffffffffff1673ffffffffffffffffffffffffffffffffffffffff16815260200190815260200160002060040160029054906101000a900460ff16600181111561084557610844617848565b5b14610885576040517f08c379a000000000000000000000000000000000000000000000000000000000815260040161087c906189d9565b60405180910390fd5b61088e83614f60565b915050919050565b33600073ffffffffffffffffffffffffffffffffffffffff16600360008373ffffffffffffffffffffffffffffffffffffffff1673ffffffffffffffffffffffffffffffffffffffff16815260200190815260200160002060020160009054906101000a900473ffffffffffffffffffffffffffffffffffffffff1673ffffffffffffffffffffffffffffffffffffffff1603610968576040517f08c379a000000000000000000000000000000000000000000000000000000000815260040161095f9061896d565b60405180910390fd5b8073ffffffffffffffffffffffffffffffffffffffff16600360008373ffffffffffffffffffffffffffffffffffffffff1673ffffffffffffffffffffffffffffffffffffffff16815260200190815260200160002060020160009054906101000a900473ffffffffffffffffffffffffffffffffffffffff1673ffffffffffffffffffffffffffffffffffffffff1614610a38576040517f08c379a0000000000000000000000000000000000000000000000000000000008152600401610a2f9061896d565b60405180910390fd5b60006001811115610a4c57610a4b617848565b5b600360008373ffffffffffffffffffffffffffffffffffffffff1673ffffffffffffffffffffffffffffffffffffffff16815260200190815260200160002060040160029054906101000a900460ff166001811115610aae57610aad617848565b5b14610aee576040517f08c379a0000000000000000000000000000000000000000000000000000000008152600401610ae5906189d9565b60405180910390fd5b6000610afa338561528f565b9050610b05816152bb565b610b44576040517f08c379a0000000000000000000000000000000000000000000000000000000008152600401610b3b90618a45565b60405180910390fd5b610b4d846153d0565b610b8c576040517f08c379a0000000000000000000000000000000000000000000000000000000008152600401610b8390618ab1565b60405180910390fd5b6000600782604051610b9e9190618b0d565b908152602001604051809103902060070160016101000a81548160ff02191690836002811115610bd157610bd0617848565b5b021790555082600782604051610be79190618b0d565b90815260200160405180910390206008019081610c049190618cd0565b507f524a348eaa0159a5bd9d05667fe8d01e3fef50369ae5f27c2ade107c84bfeaf781600783604051610c379190618b0d565b9081526020016040518091039020600401600784604051610c589190618b0d565b9081526020016040518091039020600201604051610c7893929190618e5f565b60405180910390a150505050565b600460009054906101000a900473ffffffffffffffffffffffffffffffffffffffff1673ffffffffffffffffffffffffffffffffffffffff163373ffffffffffffffffffffffffffffffffffffffff1614610d16576040517f08c379a0000000000000000000000000000000000000000000000000000000008152600401610d0d90618ef7565b60405180910390fd5b610d1f816155ce565b6040518060a001604052808260000151815260200182602001518152602001826040015173ffffffffffffffffffffffffffffffffffffffff16815260200160016002811115610d7257610d71617848565b5b815260200160006001811115610d8b57610d8a617848565b5b81525060066000836040015173ffffffffffffffffffffffffffffffffffffffff1673ffffffffffffffffffffffffffffffffffffffff1681526020019081526020016000206000820151816000019081610de69190618cd0565b506020820151816001019081610dfc9190618cd0565b5060408201518160020160006101000a81548173ffffffffffffffffffffffffffffffffffffffff021916908373ffffffffffffffffffffffffffffffffffffffff16021790555060608201518160020160146101000a81548160ff02191690836002811115610e6f57610e6e617848565b5b021790555060808201518160020160156101000a81548160ff02191690836001811115610e9f57610e9e617848565b5b0217905550905050600581604001519080600181540180825580915050600190039060005260206000200160009091909190916101000a81548173ffffffffffffffffffffffffffffffffffffffff021916908373ffffffffffffffffffffffffffffffffffffffff16021790555050565b6000610f1b61749a565b610f236174fc565b33600073ffffffffffffffffffffffffffffffffffffffff168173ffffffffffffffffffffffffffffffffffffffff1603610f93576040517f08c379a0000000000000000000000000000000000000000000000000000000008152600401610f8a906187c9565b60405180910390fd5b600073ffffffffffffffffffffffffffffffffffffffff16600160008373ffffffffffffffffffffffffffffffffffffffff1673ffffffffffffffffffffffffffffffffffffffff16815260200190815260200160002060030160009054906101000a900473ffffffffffffffffffffffffffffffffffffffff1673ffffffffffffffffffffffffffffffffffffffff1603611064576040517f08c379a000000000000000000000000000000000000000000000000000000000815260040161105b90618835565b60405180910390fd5b611147600160008373ffffffffffffffffffffffffffffffffffffffff1673ffffffffffffffffffffffffffffffffffffffff16815260200190815260200160002060010180546110b490618884565b80601f01602080910402602001604051908101604052809291908181526020018280546110e090618884565b801561112d5780601f106111025761010080835404028352916020019161112d565b820191906000526020600020905b81548152906001019060200180831161111057829003601f168201915b505050505060405180602001604052806000815250614c38565b15611187576040517f08c379a000000000000000000000000000000000000000000000000000000000815260040161117e90618901565b60405180910390fd5b84600073ffffffffffffffffffffffffffffffffffffffff16600360008373ffffffffffffffffffffffffffffffffffffffff1673ffffffffffffffffffffffffffffffffffffffff16815260200190815260200160002060020160009054906101000a900473ffffffffffffffffffffffffffffffffffffffff1673ffffffffffffffffffffffffffffffffffffffff1603611259576040517f08c379a00000000000000000000000000000000000000000000000000000000081526004016112509061896d565b60405180910390fd5b8073ffffffffffffffffffffffffffffffffffffffff16600360008373ffffffffffffffffffffffffffffffffffffffff1673ffffffffffffffffffffffffffffffffffffffff16815260200190815260200160002060020160009054906101000a900473ffffffffffffffffffffffffffffffffffffffff1673ffffffffffffffffffffffffffffffffffffffff1614611329576040517f08c379a00000000000000000000000000000000000000000000000000000000081526004016113209061896d565b60405180910390fd5b6000600181111561133d5761133c617848565b5b600360008373ffffffffffffffffffffffffffffffffffffffff1673ffffffffffffffffffffffffffffffffffffffff16815260200190815260200160002060040160029054906101000a900460ff16600181111561139f5761139e617848565b5b146113df576040517f08c379a00000000000000000000000000000000000000000000000000000000081526004016113d6906189d9565b60405180910390fd5b60006113e961749a565b6113f16174fc565b6000600960003373ffffffffffffffffffffffffffffffffffffffff1673ffffffffffffffffffffffffffffffffffffffff1681526020019081526020016000208054806020026020016040519081016040528092919081815260200182805480156114b257602002820191906000526020600020905b8160009054906101000a900473ffffffffffffffffffffffffffffffffffffffff1673ffffffffffffffffffffffffffffffffffffffff1681526020019060010190808311611468575b5050505050905060005b8151811015611974578a73ffffffffffffffffffffffffffffffffffffffff168282815181106114ef576114ee618f17565b5b602002602001015173ffffffffffffffffffffffffffffffffffffffff1603611961576001945061151f8b614f60565b9350600761152d8c3361528f565b60405161153a9190618b0d565b90815260200160405180910390206040518061014001604052908160008201805461156490618884565b80601f016020809104026020016040519081016040528092919081815260200182805461159090618884565b80156115dd5780601f106115b2576101008083540402835291602001916115dd565b820191906000526020600020905b8154815290600101906020018083116115c057829003601f168201915b505050505081526020016001820160009054906101000a900473ffffffffffffffffffffffffffffffffffffffff1673ffffffffffffffffffffffffffffffffffffffff1673ffffffffffffffffffffffffffffffffffffffff16815260200160028201805461164c90618884565b80601f016020809104026020016040519081016040528092919081815260200182805461167890618884565b80156116c55780601f1061169a576101008083540402835291602001916116c5565b820191906000526020600020905b8154815290600101906020018083116116a857829003601f168201915b505050505081526020016003820160009054906101000a900473ffffffffffffffffffffffffffffffffffffffff1673ffffffffffffffffffffffffffffffffffffffff1673ffffffffffffffffffffffffffffffffffffffff16815260200160048201805461173490618884565b80601f016020809104026020016040519081016040528092919081815260200182805461176090618884565b80156117ad5780601f10611782576101008083540402835291602001916117ad565b820191906000526020600020905b81548152906001019060200180831161179057829003601f168201915b505050505081526020016005820180546117c690618884565b80601f01602080910402602001604051908101604052809291908181526020018280546117f290618884565b801561183f5780601f106118145761010080835404028352916020019161183f565b820191906000526020600020905b81548152906001019060200180831161182257829003601f168201915b50505050508152602001600682015481526020016007820160009054906101000a900460ff16600281111561187757611876617848565b5b600281111561188957611888617848565b5b81526020016007820160019054906101000a900460ff1660028111156118b2576118b1617848565b5b60028111156118c4576118c3617848565b5b81526020016008820180546118d890618884565b80601f016020809104026020016040519081016040528092919081815260200182805461190490618884565b80156119515780601f1061192657610100808354040283529160200191611951565b820191906000526020600020905b81548152906001019060200180831161193457829003601f168201915b5050505050815250509250611974565b808061196c90618f75565b9150506114bc565b508383839850985098505050505050509193909250565b33600073ffffffffffffffffffffffffffffffffffffffff168173ffffffffffffffffffffffffffffffffffffffff16036119fb576040517f08c379a00000000000000000000000000000000000000000000000000000000081526004016119f2906187c9565b60405180910390fd5b600073ffffffffffffffffffffffffffffffffffffffff16600160008373ffffffffffffffffffffffffffffffffffffffff1673ffffffffffffffffffffffffffffffffffffffff16815260200190815260200160002060030160009054906101000a900473ffffffffffffffffffffffffffffffffffffffff1673ffffffffffffffffffffffffffffffffffffffff1603611acc576040517f08c379a0000000000000000000000000000000000000000000000000000000008152600401611ac390618835565b60405180910390fd5b611baf600160008373ffffffffffffffffffffffffffffffffffffffff1673ffffffffffffffffffffffffffffffffffffffff1681526020019081526020016000206001018054611b1c90618884565b80601f0160208091040260200160405190810160405280929190818152602001828054611b4890618884565b8015611b955780601f10611b6a57610100808354040283529160200191611b95565b820191906000526020600020905b815481529060010190602001808311611b7857829003601f168201915b505050505060405180602001604052806000815250614c38565b15611bef576040517f08c379a0000000000000000000000000000000000000000000000000000000008152600401611be690618901565b60405180910390fd5b83600073ffffffffffffffffffffffffffffffffffffffff16600360008373ffffffffffffffffffffffffffffffffffffffff1673ffffffffffffffffffffffffffffffffffffffff16815260200190815260200160002060020160009054906101000a900473ffffffffffffffffffffffffffffffffffffffff1673ffffffffffffffffffffffffffffffffffffffff1603611cc1576040517f08c379a0000000000000000000000000000000000000000000000000000000008152600401611cb89061896d565b60405180910390fd5b8073ffffffffffffffffffffffffffffffffffffffff16600360008373ffffffffffffffffffffffffffffffffffffffff1673ffffffffffffffffffffffffffffffffffffffff16815260200190815260200160002060020160009054906101000a900473ffffffffffffffffffffffffffffffffffffffff1673ffffffffffffffffffffffffffffffffffffffff1614611d91576040517f08c379a0000000000000000000000000000000000000000000000000000000008152600401611d889061896d565b60405180910390fd5b60006001811115611da557611da4617848565b5b600360008373ffffffffffffffffffffffffffffffffffffffff1673ffffffffffffffffffffffffffffffffffffffff16815260200190815260200160002060040160029054906101000a900460ff166001811115611e0757611e06617848565b5b14611e47576040517f08c379a0000000000000000000000000000000000000000000000000000000008152600401611e3e906189d9565b60405180910390fd5b6000611e53863361528f565b9050611e5e816152bb565b611e9d576040517f08c379a0000000000000000000000000000000000000000000000000000000008152600401611e9490619009565b60405180910390fd5b60008515611eae5760019050611eb3565b600290505b80600783604051611ec49190618b0d565b908152602001604051809103902060070160016101000a81548160ff02191690836002811115611ef757611ef6617848565b5b021790555084600783604051611f0d9190618b0d565b90815260200160405180910390206008019081611f2a9190618cd0565b507f9a3f3f9de5ac964f84f08c6124f7b844ffd73de3fd4b472eb59f6b68e5729a8182338984604051611f609493929190619047565b60405180910390a150505050505050565b600460009054906101000a900473ffffffffffffffffffffffffffffffffffffffff1673ffffffffffffffffffffffffffffffffffffffff163373ffffffffffffffffffffffffffffffffffffffff1614612001576040517f08c379a0000000000000000000000000000000000000000000000000000000008152600401611ff890618ef7565b60405180910390fd5b61200c83838361587d565b80600660008573ffffffffffffffffffffffffffffffffffffffff1673ffffffffffffffffffffffffffffffffffffffff168152602001908152602001600020600001908161205b9190618cd0565b5081600660008573ffffffffffffffffffffffffffffffffffffffff1673ffffffffffffffffffffffffffffffffffffffff16815260200190815260200160002060010190816120ab9190618cd0565b50505050565b33600073ffffffffffffffffffffffffffffffffffffffff168173ffffffffffffffffffffffffffffffffffffffff1603612121576040517f08c379a0000000000000000000000000000000000000000000000000000000008152600401612118906187c9565b60405180910390fd5b600073ffffffffffffffffffffffffffffffffffffffff16600160008373ffffffffffffffffffffffffffffffffffffffff1673ffffffffffffffffffffffffffffffffffffffff16815260200190815260200160002060030160009054906101000a900473ffffffffffffffffffffffffffffffffffffffff1673ffffffffffffffffffffffffffffffffffffffff16036121f2576040517f08c379a00000000000000000000000000000000000000000000000000000000081526004016121e990618835565b60405180910390fd5b6122d5600160008373ffffffffffffffffffffffffffffffffffffffff1673ffffffffffffffffffffffffffffffffffffffff168152602001908152602001600020600101805461224290618884565b80601f016020809104026020016040519081016040528092919081815260200182805461226e90618884565b80156122bb5780601f10612290576101008083540402835291602001916122bb565b820191906000526020600020905b81548152906001019060200180831161229e57829003601f168201915b505050505060405180602001604052806000815250614c38565b15612315576040517f08c379a000000000000000000000000000000000000000000000000000000000815260040161230c90618901565b60405180910390fd5b6000612321843361528f565b905061232c816152bb565b61236b576040517f08c379a0000000000000000000000000000000000000000000000000000000008152600401612362906190df565b60405180910390fd5b600260078260405161237d9190618b0d565b908152602001604051809103902060070160016101000a81548160ff021916908360028111156123b0576123af617848565b5b0217905550826007826040516123c69190618b0d565b908152602001604051809103902060080190816123e39190618cd0565b507f9a3f3f9de5ac964f84f08c6124f7b844ffd73de3fd4b472eb59f6b68e5729a81813386600260405161241a9493929190619047565b60405180910390a150505050565b60006060600460009054906101000a900473ffffffffffffffffffffffffffffffffffffffff1673ffffffffffffffffffffffffffffffffffffffff163373ffffffffffffffffffffffffffffffffffffffff16146124bc576040517f08c379a00000000000000000000000000000000000000000000000000000000081526004016124b390618ef7565b60405180910390fd5b6124c583615a2e565b91509150915091565b60006124d8617431565b6124e06174fc565b83600073ffffffffffffffffffffffffffffffffffffffff168173ffffffffffffffffffffffffffffffffffffffff1603612550576040517f08c379a0000000000000000000000000000000000000000000000000000000008152600401612547906187c9565b60405180910390fd5b600073ffffffffffffffffffffffffffffffffffffffff16600160008373ffffffffffffffffffffffffffffffffffffffff1673ffffffffffffffffffffffffffffffffffffffff16815260200190815260200160002060030160009054906101000a900473ffffffffffffffffffffffffffffffffffffffff1673ffffffffffffffffffffffffffffffffffffffff1603612621576040517f08c379a000000000000000000000000000000000000000000000000000000000815260040161261890618835565b60405180910390fd5b612704600160008373ffffffffffffffffffffffffffffffffffffffff1673ffffffffffffffffffffffffffffffffffffffff168152602001908152602001600020600101805461267190618884565b80601f016020809104026020016040519081016040528092919081815260200182805461269d90618884565b80156126ea5780601f106126bf576101008083540402835291602001916126ea565b820191906000526020600020905b8154815290600101906020018083116126cd57829003601f168201915b505050505060405180602001604052806000815250614c38565b15612744576040517f08c379a000000000000000000000000000000000000000000000000000000000815260040161273b90618901565b60405180910390fd5b33600073ffffffffffffffffffffffffffffffffffffffff16600360008373ffffffffffffffffffffffffffffffffffffffff1673ffffffffffffffffffffffffffffffffffffffff16815260200190815260200160002060020160009054906101000a900473ffffffffffffffffffffffffffffffffffffffff1673ffffffffffffffffffffffffffffffffffffffff1603612816576040517f08c379a000000000000000000000000000000000000000000000000000000000815260040161280d9061896d565b60405180910390fd5b8073ffffffffffffffffffffffffffffffffffffffff16600360008373ffffffffffffffffffffffffffffffffffffffff1673ffffffffffffffffffffffffffffffffffffffff16815260200190815260200160002060020160009054906101000a900473ffffffffffffffffffffffffffffffffffffffff1673ffffffffffffffffffffffffffffffffffffffff16146128e6576040517f08c379a00000000000000000000000000000000000000000000000000000000081526004016128dd9061896d565b60405180910390fd5b600060018111156128fa576128f9617848565b5b600360008373ffffffffffffffffffffffffffffffffffffffff1673ffffffffffffffffffffffffffffffffffffffff16815260200190815260200160002060040160029054906101000a900460ff16600181111561295c5761295b617848565b5b1461299c576040517f08c379a0000000000000000000000000000000000000000000000000000000008152600401612993906189d9565b60405180910390fd5b60006129a6617431565b6129ae6174fc565b612a7b89600860003373ffffffffffffffffffffffffffffffffffffffff1673ffffffffffffffffffffffffffffffffffffffff168152602001908152602001600020805480602002602001604051908101604052809291908181526020018280548015612a7157602002820191906000526020600020905b8160009054906101000a900473ffffffffffffffffffffffffffffffffffffffff1673ffffffffffffffffffffffffffffffffffffffff1681526020019060010190808311612a27575b5050505050615eaa565b80935081945050508215612ec5576007612a95338b61528f565b604051612aa29190618b0d565b908152602001604051809103902060405180610140016040529081600082018054612acc90618884565b80601f0160208091040260200160405190810160405280929190818152602001828054612af890618884565b8015612b455780601f10612b1a57610100808354040283529160200191612b45565b820191906000526020600020905b815481529060010190602001808311612b2857829003601f168201915b505050505081526020016001820160009054906101000a900473ffffffffffffffffffffffffffffffffffffffff1673ffffffffffffffffffffffffffffffffffffffff1673ffffffffffffffffffffffffffffffffffffffff168152602001600282018054612bb490618884565b80601f0160208091040260200160405190810160405280929190818152602001828054612be090618884565b8015612c2d5780601f10612c0257610100808354040283529160200191612c2d565b820191906000526020600020905b815481529060010190602001808311612c1057829003601f168201915b505050505081526020016003820160009054906101000a900473ffffffffffffffffffffffffffffffffffffffff1673ffffffffffffffffffffffffffffffffffffffff1673ffffffffffffffffffffffffffffffffffffffff168152602001600482018054612c9c90618884565b80601f0160208091040260200160405190810160405280929190818152602001828054612cc890618884565b8015612d155780601f10612cea57610100808354040283529160200191612d15565b820191906000526020600020905b815481529060010190602001808311612cf857829003601f168201915b50505050508152602001600582018054612d2e90618884565b80601f0160208091040260200160405190810160405280929190818152602001828054612d5a90618884565b8015612da75780601f10612d7c57610100808354040283529160200191612da7565b820191906000526020600020905b815481529060010190602001808311612d8a57829003601f168201915b50505050508152602001600682015481526020016007820160009054906101000a900460ff166002811115612ddf57612dde617848565b5b6002811115612df157612df0617848565b5b81526020016007820160019054906101000a900460ff166002811115612e1a57612e19617848565b5b6002811115612e2c57612e2b617848565b5b8152602001600882018054612e4090618884565b80601f0160208091040260200160405190810160405280929190818152602001828054612e6c90618884565b8015612eb95780601f10612e8e57610100808354040283529160200191612eb9565b820191906000526020600020905b815481529060010190602001808311612e9c57829003601f168201915b50505050508152505090505b82828297509750975050505050509193909250565b33600073ffffffffffffffffffffffffffffffffffffffff16600360008373ffffffffffffffffffffffffffffffffffffffff1673ffffffffffffffffffffffffffffffffffffffff16815260200190815260200160002060020160009054906101000a900473ffffffffffffffffffffffffffffffffffffffff1673ffffffffffffffffffffffffffffffffffffffff1603612fac576040517f08c379a0000000000000000000000000000000000000000000000000000000008152600401612fa39061896d565b60405180910390fd5b8073ffffffffffffffffffffffffffffffffffffffff16600360008373ffffffffffffffffffffffffffffffffffffffff1673ffffffffffffffffffffffffffffffffffffffff16815260200190815260200160002060020160009054906101000a900473ffffffffffffffffffffffffffffffffffffffff1673ffffffffffffffffffffffffffffffffffffffff161461307c576040517f08c379a00000000000000000000000000000000000000000000000000000000081526004016130739061896d565b60405180910390fd5b600060018111156130905761308f617848565b5b600360008373ffffffffffffffffffffffffffffffffffffffff1673ffffffffffffffffffffffffffffffffffffffff16815260200190815260200160002060040160029054906101000a900460ff1660018111156130f2576130f1617848565b5b14613132576040517f08c379a0000000000000000000000000000000000000000000000000000000008152600401613129906189d9565b60405180910390fd5b600061314233866060015161528f565b905061314d816152bb565b1561318d576040517f08c379a00000000000000000000000000000000000000000000000000000000081526004016131849061914b565b60405180910390fd5b604051806101400160405280828152602001866060015173ffffffffffffffffffffffffffffffffffffffff168152602001866000015181526020013373ffffffffffffffffffffffffffffffffffffffff1681526020016131ee33614f60565b6000015181526020018660a0015181526020018581526020016000600281111561321b5761321a617848565b5b81526020016000600281111561323457613233617848565b5b81526020018481525060078260405161324d9190618b0d565b908152602001604051809103902060008201518160000190816132709190618cd0565b5060208201518160010160006101000a81548173ffffffffffffffffffffffffffffffffffffffff021916908373ffffffffffffffffffffffffffffffffffffffff16021790555060408201518160020190816132cd9190618cd0565b5060608201518160030160006101000a81548173ffffffffffffffffffffffffffffffffffffffff021916908373ffffffffffffffffffffffffffffffffffffffff160217905550608082015181600401908161332a9190618cd0565b5060a08201518160050190816133409190618cd0565b5060c0820151816006015560e08201518160070160006101000a81548160ff0219169083600281111561337657613375617848565b5b02179055506101008201518160070160016101000a81548160ff021916908360028111156133a7576133a6617848565b5b02179055506101208201518160080190816133c29190618cd0565b50905050600860003373ffffffffffffffffffffffffffffffffffffffff1673ffffffffffffffffffffffffffffffffffffffff16815260200190815260200160002085606001519080600181540180825580915050600190039060005260206000200160009091909190916101000a81548173ffffffffffffffffffffffffffffffffffffffff021916908373ffffffffffffffffffffffffffffffffffffffff16021790555060096000866060015173ffffffffffffffffffffffffffffffffffffffff1673ffffffffffffffffffffffffffffffffffffffff168152602001908152602001600020339080600181540180825580915050600190039060005260206000200160009091909190916101000a81548173ffffffffffffffffffffffffffffffffffffffff021916908373ffffffffffffffffffffffffffffffffffffffff1602179055507f1c9ca7942139211bfb75ec030ee95c38e96f4eb7d755b28d3eede55f8d5eb86d816007836040516135409190618b0d565b908152602001604051809103902060040187600001516040516135659392919061916b565b60405180910390a161357a85606001516153d0565b6137765761358785616205565b6040518060a001604052808660000151815260200186602001518152602001866060015173ffffffffffffffffffffffffffffffffffffffff1681526020016002808111156135d9576135d8617848565b5b8152602001600060018111156135f2576135f1617848565b5b81525060066000876060015173ffffffffffffffffffffffffffffffffffffffff1673ffffffffffffffffffffffffffffffffffffffff168152602001908152602001600020600082015181600001908161364d9190618cd0565b5060208201518160010190816136639190618cd0565b5060408201518160020160006101000a81548173ffffffffffffffffffffffffffffffffffffffff021916908373ffffffffffffffffffffffffffffffffffffffff16021790555060608201518160020160146101000a81548160ff021916908360028111156136d6576136d5617848565b5b021790555060808201518160020160156101000a81548160ff0219169083600181111561370657613705617848565b5b0217905550905050600585606001519080600181540180825580915050600190039060005260206000200160009091909190916101000a81548173ffffffffffffffffffffffffffffffffffffffff021916908373ffffffffffffffffffffffffffffffffffffffff1602179055505b5050505050565b33600073ffffffffffffffffffffffffffffffffffffffff168173ffffffffffffffffffffffffffffffffffffffff16036137ed576040517f08c379a00000000000000000000000000000000000000000000000000000000081526004016137e4906187c9565b60405180910390fd5b600073ffffffffffffffffffffffffffffffffffffffff16600160008373ffffffffffffffffffffffffffffffffffffffff1673ffffffffffffffffffffffffffffffffffffffff16815260200190815260200160002060030160009054906101000a900473ffffffffffffffffffffffffffffffffffffffff1673ffffffffffffffffffffffffffffffffffffffff16036138be576040517f08c379a00000000000000000000000000000000000000000000000000000000081526004016138b590618835565b60405180910390fd5b6139a1600160008373ffffffffffffffffffffffffffffffffffffffff1673ffffffffffffffffffffffffffffffffffffffff168152602001908152602001600020600101805461390e90618884565b80601f016020809104026020016040519081016040528092919081815260200182805461393a90618884565b80156139875780601f1061395c57610100808354040283529160200191613987565b820191906000526020600020905b81548152906001019060200180831161396a57829003601f168201915b505050505060405180602001604052806000815250614c38565b156139e1576040517f08c379a00000000000000000000000000000000000000000000000000000000081526004016139d890618901565b60405180910390fd5b6139ec8484846163e1565b83600660003373ffffffffffffffffffffffffffffffffffffffff1673ffffffffffffffffffffffffffffffffffffffff1681526020019081526020016000206000019081613a3b9190618cd0565b5082600660003373ffffffffffffffffffffffffffffffffffffffff1673ffffffffffffffffffffffffffffffffffffffff1681526020019081526020016000206001019081613a8b9190618cd0565b5050505050565b33600073ffffffffffffffffffffffffffffffffffffffff168173ffffffffffffffffffffffffffffffffffffffff1603613b02576040517f08c379a0000000000000000000000000000000000000000000000000000000008152600401613af9906187c9565b60405180910390fd5b600073ffffffffffffffffffffffffffffffffffffffff16600160008373ffffffffffffffffffffffffffffffffffffffff1673ffffffffffffffffffffffffffffffffffffffff16815260200190815260200160002060030160009054906101000a900473ffffffffffffffffffffffffffffffffffffffff1673ffffffffffffffffffffffffffffffffffffffff1603613bd3576040517f08c379a0000000000000000000000000000000000000000000000000000000008152600401613bca90618835565b60405180910390fd5b613cb6600160008373ffffffffffffffffffffffffffffffffffffffff1673ffffffffffffffffffffffffffffffffffffffff1681526020019081526020016000206001018054613c2390618884565b80601f0160208091040260200160405190810160405280929190818152602001828054613c4f90618884565b8015613c9c5780601f10613c7157610100808354040283529160200191613c9c565b820191906000526020600020905b815481529060010190602001808311613c7f57829003601f168201915b505050505060405180602001604052806000815250614c38565b15613cf6576040517f08c379a0000000000000000000000000000000000000000000000000000000008152600401613ced90618901565b60405180910390fd5b613d008383616508565b6000600960003373ffffffffffffffffffffffffffffffffffffffff1673ffffffffffffffffffffffffffffffffffffffff168152602001908152602001600020805480602002602001604051908101604052809291908181526020018280548015613dc157602002820191906000526020600020905b8160009054906101000a900473ffffffffffffffffffffffffffffffffffffffff1673ffffffffffffffffffffffffffffffffffffffff1681526020019060010190808311613d77575b5050505050905060005b8151811015613f22576000613dfa838381518110613dec57613deb618f17565b5b60200260200101513361528f565b9050613e05816152bb565b15613f0e5785600782604051613e1b9190618b0d565b90815260200160405180910390206005019081613e389190618cd0565b5084600782604051613e4a9190618b0d565b9081526020016040518091039020600601819055506000600782604051613e719190618b0d565b908152602001604051809103902060070160006101000a81548160ff02191690836002811115613ea457613ea3617848565b5b02179055506040518060400160405280601381526020017f5570646174656420616c6c206d7920646f637300000000000000000000000000815250600782604051613eef9190618b0d565b90815260200160405180910390206008019081613f0c9190618cd0565b505b508080613f1a90618f75565b915050613dcb565b5050505050565b600460009054906101000a900473ffffffffffffffffffffffffffffffffffffffff1673ffffffffffffffffffffffffffffffffffffffff163373ffffffffffffffffffffffffffffffffffffffff1614613fb9576040517f08c379a0000000000000000000000000000000000000000000000000000000008152600401613fb090618ef7565b60405180910390fd5b613fc3828261661f565b600660008473ffffffffffffffffffffffffffffffffffffffff1673ffffffffffffffffffffffffffffffffffffffff16815260200190815260200160002060020160156101000a81548160ff0219169083600181111561402757614026617848565b5b02179055505050565b6000606033600073ffffffffffffffffffffffffffffffffffffffff16600360008373ffffffffffffffffffffffffffffffffffffffff1673ffffffffffffffffffffffffffffffffffffffff16815260200190815260200160002060020160009054906101000a900473ffffffffffffffffffffffffffffffffffffffff1673ffffffffffffffffffffffffffffffffffffffff1603614106576040517f08c379a00000000000000000000000000000000000000000000000000000000081526004016140fd9061896d565b60405180910390fd5b8073ffffffffffffffffffffffffffffffffffffffff16600360008373ffffffffffffffffffffffffffffffffffffffff1673ffffffffffffffffffffffffffffffffffffffff16815260200190815260200160002060020160009054906101000a900473ffffffffffffffffffffffffffffffffffffffff1673ffffffffffffffffffffffffffffffffffffffff16146141d6576040517f08c379a00000000000000000000000000000000000000000000000000000000081526004016141cd9061896d565b60405180910390fd5b600060018111156141ea576141e9617848565b5b600360008373ffffffffffffffffffffffffffffffffffffffff1673ffffffffffffffffffffffffffffffffffffffff16815260200190815260200160002060040160029054906101000a900460ff16600181111561424c5761424b617848565b5b1461428c576040517f08c379a0000000000000000000000000000000000000000000000000000000008152600401614283906189d9565b60405180910390fd5b614297846001616a30565b9250925050915091565b6142a961759f565b600073ffffffffffffffffffffffffffffffffffffffff163373ffffffffffffffffffffffffffffffffffffffff1603614318576040517f08c379a000000000000000000000000000000000000000000000000000000000815260040161430f90619203565b60405180910390fd5b600073ffffffffffffffffffffffffffffffffffffffff16600660003373ffffffffffffffffffffffffffffffffffffffff1673ffffffffffffffffffffffffffffffffffffffff16815260200190815260200160002060020160009054906101000a900473ffffffffffffffffffffffffffffffffffffffff1673ffffffffffffffffffffffffffffffffffffffff16036143e9576040517f08c379a00000000000000000000000000000000000000000000000000000000081526004016143e090618835565b60405180910390fd5b600660003373ffffffffffffffffffffffffffffffffffffffff1673ffffffffffffffffffffffffffffffffffffffff1681526020019081526020016000206040518060a001604052908160008201805461444390618884565b80601f016020809104026020016040519081016040528092919081815260200182805461446f90618884565b80156144bc5780601f10614491576101008083540402835291602001916144bc565b820191906000526020600020905b81548152906001019060200180831161449f57829003601f168201915b505050505081526020016001820180546144d590618884565b80601f016020809104026020016040519081016040528092919081815260200182805461450190618884565b801561454e5780601f106145235761010080835404028352916020019161454e565b820191906000526020600020905b81548152906001019060200180831161453157829003601f168201915b505050505081526020016002820160009054906101000a900473ffffffffffffffffffffffffffffffffffffffff1673ffffffffffffffffffffffffffffffffffffffff1673ffffffffffffffffffffffffffffffffffffffff1681526020016002820160149054906101000a900460ff1660028111156145d2576145d1617848565b5b60028111156145e4576145e3617848565b5b81526020016002820160159054906101000a900460ff16600181111561460d5761460c617848565b5b600181111561461f5761461e617848565b5b81525050905090565b6000606033600073ffffffffffffffffffffffffffffffffffffffff168173ffffffffffffffffffffffffffffffffffffffff160361469c576040517f08c379a0000000000000000000000000000000000000000000000000000000008152600401614693906187c9565b60405180910390fd5b600073ffffffffffffffffffffffffffffffffffffffff16600160008373ffffffffffffffffffffffffffffffffffffffff1673ffffffffffffffffffffffffffffffffffffffff16815260200190815260200160002060030160009054906101000a900473ffffffffffffffffffffffffffffffffffffffff1673ffffffffffffffffffffffffffffffffffffffff160361476d576040517f08c379a000000000000000000000000000000000000000000000000000000000815260040161476490618835565b60405180910390fd5b614850600160008373ffffffffffffffffffffffffffffffffffffffff1673ffffffffffffffffffffffffffffffffffffffff16815260200190815260200160002060010180546147bd90618884565b80601f01602080910402602001604051908101604052809291908181526020018280546147e990618884565b80156148365780601f1061480b57610100808354040283529160200191614836565b820191906000526020600020905b81548152906001019060200180831161481957829003601f168201915b505050505060405180602001604052806000815250614c38565b15614890576040517f08c379a000000000000000000000000000000000000000000000000000000000815260040161488790618901565b60405180910390fd5b61489b846000616a30565b9250925050915091565b33600073ffffffffffffffffffffffffffffffffffffffff16600360008373ffffffffffffffffffffffffffffffffffffffff1673ffffffffffffffffffffffffffffffffffffffff16815260200190815260200160002060020160009054906101000a900473ffffffffffffffffffffffffffffffffffffffff1673ffffffffffffffffffffffffffffffffffffffff1603614977576040517f08c379a000000000000000000000000000000000000000000000000000000000815260040161496e9061896d565b60405180910390fd5b8073ffffffffffffffffffffffffffffffffffffffff16600360008373ffffffffffffffffffffffffffffffffffffffff1673ffffffffffffffffffffffffffffffffffffffff16815260200190815260200160002060020160009054906101000a900473ffffffffffffffffffffffffffffffffffffffff1673ffffffffffffffffffffffffffffffffffffffff1614614a47576040517f08c379a0000000000000000000000000000000000000000000000000000000008152600401614a3e9061896d565b60405180910390fd5b60006001811115614a5b57614a5a617848565b5b600360008373ffffffffffffffffffffffffffffffffffffffff1673ffffffffffffffffffffffffffffffffffffffff16815260200190815260200160002060040160029054906101000a900460ff166001811115614abd57614abc617848565b5b14614afd576040517f08c379a0000000000000000000000000000000000000000000000000000000008152600401614af4906189d9565b60405180910390fd5b6000614b09338661528f565b9050614b14816152bb565b614b53576040517f08c379a0000000000000000000000000000000000000000000000000000000008152600401614b4a90619009565b60405180910390fd5b60008415614b765760019050614b68336171a7565b614b7186617294565b614b7b565b600290505b80600783604051614b8c9190618b0d565b908152602001604051809103902060070160006101000a81548160ff02191690836002811115614bbf57614bbe617848565b5b021790555083600783604051614bd59190618b0d565b90815260200160405180910390206008019081614bf29190618cd0565b507f900b83a690e29ff7d6e76e350983afea30403d6c47fe8ce52045fb20074c79a082873384604051614c289493929190619232565b60405180910390a1505050505050565b600081604051602001614c4b9190618b0d565b6040516020818303038152906040528051906020012083604051602001614c729190618b0d565b6040516020818303038152906040528051906020012014905092915050565b614c99617431565b600160008373ffffffffffffffffffffffffffffffffffffffff1673ffffffffffffffffffffffffffffffffffffffff1681526020019081526020016000206040518060e0016040529081600082018054614cf390618884565b80601f0160208091040260200160405190810160405280929190818152602001828054614d1f90618884565b8015614d6c5780601f10614d4157610100808354040283529160200191614d6c565b820191906000526020600020905b815481529060010190602001808311614d4f57829003601f168201915b50505050508152602001600182018054614d8590618884565b80601f0160208091040260200160405190810160405280929190818152602001828054614db190618884565b8015614dfe5780601f10614dd357610100808354040283529160200191614dfe565b820191906000526020600020905b815481529060010190602001808311614de157829003601f168201915b50505050508152602001600282015481526020016003820160009054906101000a900473ffffffffffffffffffffffffffffffffffffffff1673ffffffffffffffffffffffffffffffffffffffff1673ffffffffffffffffffffffffffffffffffffffff1681526020016004820160009054906101000a900473ffffffffffffffffffffffffffffffffffffffff1673ffffffffffffffffffffffffffffffffffffffff1673ffffffffffffffffffffffffffffffffffffffff168152602001600582018054614ecd90618884565b80601f0160208091040260200160405190810160405280929190818152602001828054614ef990618884565b8015614f465780601f10614f1b57610100808354040283529160200191614f46565b820191906000526020600020905b815481529060010190602001808311614f2957829003601f168201915b505050505081526020016006820154815250509050919050565b614f6861749a565b600073ffffffffffffffffffffffffffffffffffffffff168273ffffffffffffffffffffffffffffffffffffffff1603614fd7576040517f08c379a0000000000000000000000000000000000000000000000000000000008152600401614fce906192ca565b60405180910390fd5b600360008373ffffffffffffffffffffffffffffffffffffffff1673ffffffffffffffffffffffffffffffffffffffff1681526020019081526020016000206040518060c001604052908160008201805461503190618884565b80601f016020809104026020016040519081016040528092919081815260200182805461505d90618884565b80156150aa5780601f1061507f576101008083540402835291602001916150aa565b820191906000526020600020905b81548152906001019060200180831161508d57829003601f168201915b505050505081526020016001820180546150c390618884565b80601f01602080910402602001604051908101604052809291908181526020018280546150ef90618884565b801561513c5780601f106151115761010080835404028352916020019161513c565b820191906000526020600020905b81548152906001019060200180831161511f57829003601f168201915b505050505081526020016002820160009054906101000a900473ffffffffffffffffffffffffffffffffffffffff1673ffffffffffffffffffffffffffffffffffffffff1673ffffffffffffffffffffffffffffffffffffffff1681526020016003820180546151ab90618884565b80601f01602080910402602001604051908101604052809291908181526020018280546151d790618884565b80156152245780601f106151f957610100808354040283529160200191615224565b820191906000526020600020905b81548152906001019060200180831161520757829003601f168201915b505050505081526020016004820160009054906101000a900461ffff1661ffff1661ffff1681526020016004820160029054906101000a900460ff16600181111561527257615271617848565b5b600181111561528457615283617848565b5b815250509050919050565b606082826040516020016152a4929190619332565b604051602081830303815290604052905092915050565b60006152d68260405180602001604052806000815250614c38565b15615316576040517f08c379a000000000000000000000000000000000000000000000000000000000815260040161530d906193aa565b60405180910390fd5b6153c96007836040516153299190618b0d565b9081526020016040518091039020600001805461534590618884565b80601f016020809104026020016040519081016040528092919081815260200182805461537190618884565b80156153be5780601f10615393576101008083540402835291602001916153be565b820191906000526020600020905b8154815290600101906020018083116153a157829003601f168201915b505050505083614c38565b9050919050565b60008073ffffffffffffffffffffffffffffffffffffffff168273ffffffffffffffffffffffffffffffffffffffff1603615440576040517f08c379a000000000000000000000000000000000000000000000000000000000815260040161543790619416565b60405180910390fd5b600073ffffffffffffffffffffffffffffffffffffffff16600160008473ffffffffffffffffffffffffffffffffffffffff1673ffffffffffffffffffffffffffffffffffffffff16815260200190815260200160002060030160009054906101000a900473ffffffffffffffffffffffffffffffffffffffff1673ffffffffffffffffffffffffffffffffffffffff16141580156155bf57506155bd600160008473ffffffffffffffffffffffffffffffffffffffff1673ffffffffffffffffffffffffffffffffffffffff168152602001908152602001600020600101805461552a90618884565b80601f016020809104026020016040519081016040528092919081815260200182805461555690618884565b80156155a35780601f10615578576101008083540402835291602001916155a3565b820191906000526020600020905b81548152906001019060200180831161558657829003601f168201915b505050505060405180602001604052806000815250614c38565b155b156155c957600190505b919050565b600073ffffffffffffffffffffffffffffffffffffffff1660036000836040015173ffffffffffffffffffffffffffffffffffffffff1673ffffffffffffffffffffffffffffffffffffffff16815260200190815260200160002060020160009054906101000a900473ffffffffffffffffffffffffffffffffffffffff1673ffffffffffffffffffffffffffffffffffffffff16146156a3576040517f08c379a000000000000000000000000000000000000000000000000000000000815260040161569a90619482565b60405180910390fd5b8060036000836040015173ffffffffffffffffffffffffffffffffffffffff1673ffffffffffffffffffffffffffffffffffffffff16815260200190815260200160002060008201518160000190816156fc9190618cd0565b5060208201518160010190816157129190618cd0565b5060408201518160020160006101000a81548173ffffffffffffffffffffffffffffffffffffffff021916908373ffffffffffffffffffffffffffffffffffffffff160217905550606082015181600301908161576f9190618cd0565b5060808201518160040160006101000a81548161ffff021916908361ffff16021790555060a08201518160040160026101000a81548160ff021916908360018111156157be576157bd617848565b5b0217905550905050600281604001519080600181540180825580915050600190039060005260206000200160009091909190916101000a81548173ffffffffffffffffffffffffffffffffffffffff021916908373ffffffffffffffffffffffffffffffffffffffff1602179055507f17ee33cc6a54067d735ee1c9200fc0dc8354b1d7deae9908692bcd90723044b1816040015182600001518360200151846060015160405161587294939291906194a2565b60405180910390a150565b600073ffffffffffffffffffffffffffffffffffffffff16600360008573ffffffffffffffffffffffffffffffffffffffff1673ffffffffffffffffffffffffffffffffffffffff16815260200190815260200160002060020160009054906101000a900473ffffffffffffffffffffffffffffffffffffffff1673ffffffffffffffffffffffffffffffffffffffff160361594e576040517f08c379a00000000000000000000000000000000000000000000000000000000081526004016159459061896d565b60405180910390fd5b80600360008573ffffffffffffffffffffffffffffffffffffffff1673ffffffffffffffffffffffffffffffffffffffff168152602001908152602001600020600001908161599d9190618cd0565b5081600360008573ffffffffffffffffffffffffffffffffffffffff1673ffffffffffffffffffffffffffffffffffffffff16815260200190815260200160002060010190816159ed9190618cd0565b507fc0e694475d9755514453a459373ded91f1517029faca54000da1c3007ec2c4f9838284604051615a21939291906194fc565b60405180910390a1505050565b6000606060008311615a75576040517f08c379a0000000000000000000000000000000000000000000000000000000008152600401615a6c9061958d565b60405180910390fd5b600080600080615b0b876002805480602002602001604051908101604052809291908181526020018280548015615b0157602002820191906000526020600020905b8160009054906101000a900473ffffffffffffffffffffffffffffffffffffffff1673ffffffffffffffffffffffffffffffffffffffff1681526020019060010190808311615ab7575b5050505050617387565b935093509350935060008367ffffffffffffffff811115615b2f57615b2e617982565b5b604051908082528060200260200182016040528015615b6857816020015b615b5561749a565b815260200190600190039081615b4d5790505b50905060008390505b82811015615e99576003600060028381548110615b9157615b90618f17565b5b9060005260206000200160009054906101000a900473ffffffffffffffffffffffffffffffffffffffff1673ffffffffffffffffffffffffffffffffffffffff1673ffffffffffffffffffffffffffffffffffffffff1681526020019081526020016000206040518060c0016040529081600082018054615c1190618884565b80601f0160208091040260200160405190810160405280929190818152602001828054615c3d90618884565b8015615c8a5780601f10615c5f57610100808354040283529160200191615c8a565b820191906000526020600020905b815481529060010190602001808311615c6d57829003601f168201915b50505050508152602001600182018054615ca390618884565b80601f0160208091040260200160405190810160405280929190818152602001828054615ccf90618884565b8015615d1c5780601f10615cf157610100808354040283529160200191615d1c565b820191906000526020600020905b815481529060010190602001808311615cff57829003601f168201915b505050505081526020016002820160009054906101000a900473ffffffffffffffffffffffffffffffffffffffff1673ffffffffffffffffffffffffffffffffffffffff1673ffffffffffffffffffffffffffffffffffffffff168152602001600382018054615d8b90618884565b80601f0160208091040260200160405190810160405280929190818152602001828054615db790618884565b8015615e045780601f10615dd957610100808354040283529160200191615e04565b820191906000526020600020905b815481529060010190602001808311615de757829003601f168201915b505050505081526020016004820160009054906101000a900461ffff1661ffff1661ffff1681526020016004820160029054906101000a900460ff166001811115615e5257615e51617848565b5b6001811115615e6457615e63617848565b5b81525050828281518110615e7b57615e7a618f17565b5b60200260200101819052508080615e9190618f75565b915050615b71565b508481965096505050505050915091565b6000615eb4617431565b6000615ebe617431565b60005b85518110156161f5578673ffffffffffffffffffffffffffffffffffffffff16868281518110615ef457615ef3618f17565b5b602002602001015173ffffffffffffffffffffffffffffffffffffffff16036161e25760019250600160008873ffffffffffffffffffffffffffffffffffffffff1673ffffffffffffffffffffffffffffffffffffffff1681526020019081526020016000206040518060e0016040529081600082018054615f7590618884565b80601f0160208091040260200160405190810160405280929190818152602001828054615fa190618884565b8015615fee5780601f10615fc357610100808354040283529160200191615fee565b820191906000526020600020905b815481529060010190602001808311615fd157829003601f168201915b5050505050815260200160018201805461600790618884565b80601f016020809104026020016040519081016040528092919081815260200182805461603390618884565b80156160805780601f1061605557610100808354040283529160200191616080565b820191906000526020600020905b81548152906001019060200180831161606357829003601f168201915b50505050508152602001600282015481526020016003820160009054906101000a900473ffffffffffffffffffffffffffffffffffffffff1673ffffffffffffffffffffffffffffffffffffffff1673ffffffffffffffffffffffffffffffffffffffff1681526020016004820160009054906101000a900473ffffffffffffffffffffffffffffffffffffffff1673ffffffffffffffffffffffffffffffffffffffff1673ffffffffffffffffffffffffffffffffffffffff16815260200160058201805461614f90618884565b80601f016020809104026020016040519081016040528092919081815260200182805461617b90618884565b80156161c85780601f1061619d576101008083540402835291602001916161c8565b820191906000526020600020905b8154815290600101906020018083116161ab57829003601f168201915b5050505050815260200160068201548152505091506161f5565b80806161ed90618f75565b915050615ec1565b5081819350935050509250929050565b8060016000836060015173ffffffffffffffffffffffffffffffffffffffff1673ffffffffffffffffffffffffffffffffffffffff168152602001908152602001600020600082015181600001908161625e9190618cd0565b5060208201518160010190816162749190618cd0565b506040820151816002015560608201518160030160006101000a81548173ffffffffffffffffffffffffffffffffffffffff021916908373ffffffffffffffffffffffffffffffffffffffff16021790555060808201518160040160006101000a81548173ffffffffffffffffffffffffffffffffffffffff021916908373ffffffffffffffffffffffffffffffffffffffff16021790555060a08201518160050190816163229190618cd0565b5060c08201518160060155905050600081606001519080600181540180825580915050600190039060005260206000200160009091909190916101000a81548173ffffffffffffffffffffffffffffffffffffffff021916908373ffffffffffffffffffffffffffffffffffffffff1602179055507f77eacb4962819f791ebd2750d7be9519622ddcf4c37fe09c6fd33ace5ce32ccb8160600151826000015183602001516040516163d6939291906194fc565b60405180910390a150565b82600160003373ffffffffffffffffffffffffffffffffffffffff1673ffffffffffffffffffffffffffffffffffffffff16815260200190815260200160002060000190816164309190618cd0565b5081600160003373ffffffffffffffffffffffffffffffffffffffff1673ffffffffffffffffffffffffffffffffffffffff16815260200190815260200160002060010190816164809190618cd0565b5080600160003373ffffffffffffffffffffffffffffffffffffffff1673ffffffffffffffffffffffffffffffffffffffff168152602001908152602001600020600201819055507fcfc84fa73e8500b1f994b7616fda16714aa77352defd398c17f8dda41cc921953384846040516164fb939291906194fc565b60405180910390a1505050565b81600160003373ffffffffffffffffffffffffffffffffffffffff1673ffffffffffffffffffffffffffffffffffffffff16815260200190815260200160002060050190816165579190618cd0565b5080600160003373ffffffffffffffffffffffffffffffffffffffff1673ffffffffffffffffffffffffffffffffffffffff168152602001908152602001600020600601819055507f844d9124dad5a413c4b99664397291f93f1e89513cd8c3a68674c050283c556133600160003373ffffffffffffffffffffffffffffffffffffffff1673ffffffffffffffffffffffffffffffffffffffff16815260200190815260200160002060000184604051616613939291906195ad565b60405180910390a15050565b60008073ffffffffffffffffffffffffffffffffffffffff16600360008573ffffffffffffffffffffffffffffffffffffffff1673ffffffffffffffffffffffffffffffffffffffff16815260200190815260200160002060020160009054906101000a900473ffffffffffffffffffffffffffffffffffffffff1673ffffffffffffffffffffffffffffffffffffffff16036166f1576040517f08c379a00000000000000000000000000000000000000000000000000000000081526004016166e89061896d565b60405180910390fd5b818015616770575060018081111561670c5761670b617848565b5b600360008573ffffffffffffffffffffffffffffffffffffffff1673ffffffffffffffffffffffffffffffffffffffff16815260200190815260200160002060040160029054906101000a900460ff16600181111561676e5761676d617848565b5b145b15616863576000600360008573ffffffffffffffffffffffffffffffffffffffff1673ffffffffffffffffffffffffffffffffffffffff16815260200190815260200160002060040160026101000a81548160ff021916908360018111156167db576167da617848565b5b02179055507fbbb85d77e85c02977b28ba58175443b7d9c020551c53482ea6df5fe2e1cb884383600360008673ffffffffffffffffffffffffffffffffffffffff1673ffffffffffffffffffffffffffffffffffffffff1681526020019081526020016000206000016040516168529291906195f2565b60405180910390a160009050616a2a565b811580156168e45750600060018111156168805761687f617848565b5b600360008573ffffffffffffffffffffffffffffffffffffffff1673ffffffffffffffffffffffffffffffffffffffff16815260200190815260200160002060040160029054906101000a900460ff1660018111156168e2576168e1617848565b5b145b156169d7576001600360008573ffffffffffffffffffffffffffffffffffffffff1673ffffffffffffffffffffffffffffffffffffffff16815260200190815260200160002060040160026101000a81548160ff0219169083600181111561694f5761694e617848565b5b02179055507fe2914c072e85a93716aea3154e8dc2a6d4f9a823930697852b892fe10bd598f883600360008673ffffffffffffffffffffffffffffffffffffffff1673ffffffffffffffffffffffffffffffffffffffff1681526020019081526020016000206000016040516169c69291906195f2565b60405180910390a160019050616a2a565b600360008473ffffffffffffffffffffffffffffffffffffffff1673ffffffffffffffffffffffffffffffffffffffff16815260200190815260200160002060040160029054906101000a900460ff1690505b92915050565b6000606060008411616a77576040517f08c379a0000000000000000000000000000000000000000000000000000000008152600401616a6e9061966e565b60405180910390fd5b600080600080616b948888616aca57600960003373ffffffffffffffffffffffffffffffffffffffff1673ffffffffffffffffffffffffffffffffffffffff168152602001908152602001600020616b0a565b600860003373ffffffffffffffffffffffffffffffffffffffff1673ffffffffffffffffffffffffffffffffffffffff1681526020019081526020016000205b805480602002602001604051908101604052809291908181526020018280548015616b8a57602002820191906000526020600020905b8160009054906101000a900473ffffffffffffffffffffffffffffffffffffffff1673ffffffffffffffffffffffffffffffffffffffff1681526020019060010190808311616b40575b5050505050617387565b935093509350935060008367ffffffffffffffff811115616bb857616bb7617982565b5b604051908082528060200260200182016040528015616bf157816020015b616bde6174fc565b815260200190600190039081616bd65790505b50905060008390505b828110156171945788616cae576007616c8e600960003373ffffffffffffffffffffffffffffffffffffffff1673ffffffffffffffffffffffffffffffffffffffff1681526020019081526020016000208381548110616c5d57616c5c618f17565b5b9060005260206000200160009054906101000a900473ffffffffffffffffffffffffffffffffffffffff163361528f565b604051616c9b9190618b0d565b9081526020016040518091039020616d51565b6007616d3533600860003373ffffffffffffffffffffffffffffffffffffffff1673ffffffffffffffffffffffffffffffffffffffff1681526020019081526020016000208481548110616d0557616d04618f17565b5b9060005260206000200160009054906101000a900473ffffffffffffffffffffffffffffffffffffffff1661528f565b604051616d429190618b0d565b90815260200160405180910390205b60405180610140016040529081600082018054616d6d90618884565b80601f0160208091040260200160405190810160405280929190818152602001828054616d9990618884565b8015616de65780601f10616dbb57610100808354040283529160200191616de6565b820191906000526020600020905b815481529060010190602001808311616dc957829003601f168201915b505050505081526020016001820160009054906101000a900473ffffffffffffffffffffffffffffffffffffffff1673ffffffffffffffffffffffffffffffffffffffff1673ffffffffffffffffffffffffffffffffffffffff168152602001600282018054616e5590618884565b80601f0160208091040260200160405190810160405280929190818152602001828054616e8190618884565b8015616ece5780601f10616ea357610100808354040283529160200191616ece565b820191906000526020600020905b815481529060010190602001808311616eb157829003601f168201915b505050505081526020016003820160009054906101000a900473ffffffffffffffffffffffffffffffffffffffff1673ffffffffffffffffffffffffffffffffffffffff1673ffffffffffffffffffffffffffffffffffffffff168152602001600482018054616f3d90618884565b80601f0160208091040260200160405190810160405280929190818152602001828054616f6990618884565b8015616fb65780601f10616f8b57610100808354040283529160200191616fb6565b820191906000526020600020905b815481529060010190602001808311616f9957829003601f168201915b50505050508152602001600582018054616fcf90618884565b80601f0160208091040260200160405190810160405280929190818152602001828054616ffb90618884565b80156170485780601f1061701d57610100808354040283529160200191617048565b820191906000526020600020905b81548152906001019060200180831161702b57829003601f168201915b50505050508152602001600682015481526020016007820160009054906101000a900460ff1660028111156170805761707f617848565b5b600281111561709257617091617848565b5b81526020016007820160019054906101000a900460ff1660028111156170bb576170ba617848565b5b60028111156170cd576170cc617848565b5b81526020016008820180546170e190618884565b80601f016020809104026020016040519081016040528092919081815260200182805461710d90618884565b801561715a5780601f1061712f5761010080835404028352916020019161715a565b820191906000526020600020905b81548152906001019060200180831161713d57829003601f168201915b50505050508152505082828151811061717657617175618f17565b5b6020026020010181905250808061718c90618f75565b915050616bfa565b5084819650965050505050509250929050565b600073ffffffffffffffffffffffffffffffffffffffff168173ffffffffffffffffffffffffffffffffffffffff1603617216576040517f08c379a000000000000000000000000000000000000000000000000000000000815260040161720d9061896d565b60405180910390fd5b600360008273ffffffffffffffffffffffffffffffffffffffff1673ffffffffffffffffffffffffffffffffffffffff168152602001908152602001600020600401600081819054906101000a900461ffff16809291906172769061968e565b91906101000a81548161ffff021916908361ffff1602179055505050565b600073ffffffffffffffffffffffffffffffffffffffff168173ffffffffffffffffffffffffffffffffffffffff1603617303576040517f08c379a00000000000000000000000000000000000000000000000000000000081526004016172fa90619704565b60405180910390fd5b33600160008373ffffffffffffffffffffffffffffffffffffffff1673ffffffffffffffffffffffffffffffffffffffff16815260200190815260200160002060040160006101000a81548173ffffffffffffffffffffffffffffffffffffffff021916908373ffffffffffffffffffffffffffffffffffffffff16021790555050565b60008060008060006019865161739d9190619753565b9050601986516173ad9190619784565b945060008111156173c75784806173c390618f75565b9550505b601993506001876173d891906197b5565b60196173e491906197e9565b92508660196173f391906197e9565b91508487111561740a576000935060009150617427565b84871480156174195750600081115b1561742657809350855191505b5b5092959194509250565b6040518060e00160405280606081526020016060815260200160008152602001600073ffffffffffffffffffffffffffffffffffffffff168152602001600073ffffffffffffffffffffffffffffffffffffffff16815260200160608152602001600081525090565b6040518060c001604052806060815260200160608152602001600073ffffffffffffffffffffffffffffffffffffffff16815260200160608152602001600061ffff168152602001600060018111156174f6576174f5617848565b5b81525090565b60405180610140016040528060608152602001600073ffffffffffffffffffffffffffffffffffffffff16815260200160608152602001600073ffffffffffffffffffffffffffffffffffffffff1681526020016060815260200160608152602001600081526020016000600281111561757957617578617848565b5b81526020016000600281111561759257617591617848565b5b8152602001606081525090565b6040518060a001604052806060815260200160608152602001600073ffffffffffffffffffffffffffffffffffffffff168152602001600060028111156175e9576175e8617848565b5b81526020016000600181111561760257617601617848565b5b81525090565b6000604051905090565b600080fd5b600080fd5b600073ffffffffffffffffffffffffffffffffffffffff82169050919050565b60006176478261761c565b9050919050565b6176578161763c565b811461766257600080fd5b50565b6000813590506176748161764e565b92915050565b6000602082840312156176905761768f617612565b5b600061769e84828501617665565b91505092915050565b600081519050919050565b600082825260208201905092915050565b60005b838110156176e15780820151818401526020810190506176c6565b60008484015250505050565b6000601f19601f8301169050919050565b6000617709826176a7565b61771381856176b2565b93506177238185602086016176c3565b61772c816176ed565b840191505092915050565b6000819050919050565b61774a81617737565b82525050565b6177598161763c565b82525050565b600060e083016000830151848203600086015261777c82826176fe565b9150506020830151848203602086015261779682826176fe565b91505060408301516177ab6040860182617741565b5060608301516177be6060860182617750565b5060808301516177d16080860182617750565b5060a083015184820360a08601526177e982826176fe565b91505060c08301516177fe60c0860182617741565b508091505092915050565b60006020820190508181036000830152617823818461775f565b905092915050565b600061ffff82169050919050565b6178428161782b565b82525050565b7f4e487b7100000000000000000000000000000000000000000000000000000000600052602160045260246000fd5b6002811061788857617887617848565b5b50565b600081905061789982617877565b919050565b60006178a98261788b565b9050919050565b6178b98161789e565b82525050565b600060c08301600083015184820360008601526178dc82826176fe565b915050602083015184820360208601526178f682826176fe565b915050604083015161790b6040860182617750565b506060830151848203606086015261792382826176fe565b91505060808301516179386080860182617839565b5060a083015161794b60a08601826178b0565b508091505092915050565b6000602082019050818103600083015261797081846178bf565b905092915050565b600080fd5b600080fd5b7f4e487b7100000000000000000000000000000000000000000000000000000000600052604160045260246000fd5b6179ba826176ed565b810181811067ffffffffffffffff821117156179d9576179d8617982565b5b80604052505050565b60006179ec617608565b90506179f882826179b1565b919050565b600067ffffffffffffffff821115617a1857617a17617982565b5b617a21826176ed565b9050602081019050919050565b82818337600083830152505050565b6000617a50617a4b846179fd565b6179e2565b905082815260208101848484011115617a6c57617a6b61797d565b5b617a77848285617a2e565b509392505050565b600082601f830112617a9457617a93617978565b5b8135617aa4848260208601617a3d565b91505092915050565b60008060408385031215617ac457617ac3617612565b5b6000617ad285828601617665565b925050602083013567ffffffffffffffff811115617af357617af2617617565b5b617aff85828601617a7f565b9150509250929050565b600080fd5b600080fd5b617b1c8161782b565b8114617b2757600080fd5b50565b600081359050617b3981617b13565b92915050565b60028110617b4c57600080fd5b50565b600081359050617b5e81617b3f565b92915050565b600060c08284031215617b7a57617b79617b09565b5b617b8460c06179e2565b9050600082013567ffffffffffffffff811115617ba457617ba3617b0e565b5b617bb084828501617a7f565b600083015250602082013567ffffffffffffffff811115617bd457617bd3617b0e565b5b617be084828501617a7f565b6020830152506040617bf484828501617665565b604083015250606082013567ffffffffffffffff811115617c1857617c17617b0e565b5b617c2484828501617a7f565b6060830152506080617c3884828501617b2a565b60808301525060a0617c4c84828501617b4f565b60a08301525092915050565b600060208284031215617c6e57617c6d617612565b5b600082013567ffffffffffffffff811115617c8c57617c8b617617565b5b617c9884828501617b64565b91505092915050565b60008115159050919050565b617cb681617ca1565b82525050565b60038110617ccd57617ccc617848565b5b50565b6000819050617cde82617cbc565b919050565b6000617cee82617cd0565b9050919050565b617cfe81617ce3565b82525050565b60038110617d1557617d14617848565b5b50565b6000819050617d2682617d04565b919050565b6000617d3682617d18565b9050919050565b617d4681617d2b565b82525050565b6000610140830160008301518482036000860152617d6a82826176fe565b9150506020830151617d7f6020860182617750565b5060408301518482036040860152617d9782826176fe565b9150506060830151617dac6060860182617750565b5060808301518482036080860152617dc482826176fe565b91505060a083015184820360a0860152617dde82826176fe565b91505060c0830151617df360c0860182617741565b5060e0830151617e0660e0860182617cf5565b50610100830151617e1b610100860182617d3d565b50610120830151848203610120860152617e3582826176fe565b9150508091505092915050565b6000606082019050617e576000830186617cad565b8181036020830152617e6981856178bf565b90508181036040830152617e7d8184617d4c565b9050949350505050565b617e9081617ca1565b8114617e9b57600080fd5b50565b600081359050617ead81617e87565b92915050565b600080600060608486031215617ecc57617ecb617612565b5b6000617eda86828701617665565b9350506020617eeb86828701617e9e565b925050604084013567ffffffffffffffff811115617f0c57617f0b617617565b5b617f1886828701617a7f565b9150509250925092565b600080600060608486031215617f3b57617f3a617612565b5b6000617f4986828701617665565b935050602084013567ffffffffffffffff811115617f6a57617f69617617565b5b617f7686828701617a7f565b925050604084013567ffffffffffffffff811115617f9757617f96617617565b5b617fa386828701617a7f565b9150509250925092565b617fb681617737565b8114617fc157600080fd5b50565b600081359050617fd381617fad565b92915050565b600060208284031215617fef57617fee617612565b5b6000617ffd84828501617fc4565b91505092915050565b61800f81617737565b82525050565b600081519050919050565b600082825260208201905092915050565b6000819050602082019050919050565b600060c083016000830151848203600086015261805e82826176fe565b9150506020830151848203602086015261807882826176fe565b915050604083015161808d6040860182617750565b50606083015184820360608601526180a582826176fe565b91505060808301516180ba6080860182617839565b5060a08301516180cd60a08601826178b0565b508091505092915050565b60006180e48383618041565b905092915050565b6000602082019050919050565b600061810482618015565b61810e8185618020565b93508360208202850161812085618031565b8060005b8581101561815c578484038952815161813d85826180d8565b9450618148836180ec565b925060208a01995050600181019050618124565b50829750879550505050505092915050565b60006040820190506181836000830185618006565b818103602083015261819581846180f9565b90509392505050565b60006060820190506181b36000830186617cad565b81810360208301526181c5818561775f565b905081810360408301526181d98184617d4c565b9050949350505050565b600060e082840312156181f9576181f8617b09565b5b61820360e06179e2565b9050600082013567ffffffffffffffff81111561822357618222617b0e565b5b61822f84828501617a7f565b600083015250602082013567ffffffffffffffff81111561825357618252617b0e565b5b61825f84828501617a7f565b602083015250604061827384828501617fc4565b604083015250606061828784828501617665565b606083015250608061829b84828501617665565b60808301525060a082013567ffffffffffffffff8111156182bf576182be617b0e565b5b6182cb84828501617a7f565b60a08301525060c06182df84828501617fc4565b60c08301525092915050565b60008060006060848603121561830457618303617612565b5b600084013567ffffffffffffffff81111561832257618321617617565b5b61832e868287016181e3565b935050602061833f86828701617fc4565b925050604084013567ffffffffffffffff8111156183605761835f617617565b5b61836c86828701617a7f565b9150509250925092565b60008060006060848603121561838f5761838e617612565b5b600084013567ffffffffffffffff8111156183ad576183ac617617565b5b6183b986828701617a7f565b935050602084013567ffffffffffffffff8111156183da576183d9617617565b5b6183e686828701617a7f565b92505060406183f786828701617fc4565b9150509250925092565b6000806040838503121561841857618417617612565b5b600083013567ffffffffffffffff81111561843657618435617617565b5b61844285828601617a7f565b925050602061845385828601617fc4565b9150509250929050565b6000806040838503121561847457618473617612565b5b600061848285828601617665565b925050602061849385828601617e9e565b9150509250929050565b600081519050919050565b600082825260208201905092915050565b6000819050602082019050919050565b60006101408301600083015184820360008601526184e782826176fe565b91505060208301516184fc6020860182617750565b506040830151848203604086015261851482826176fe565b91505060608301516185296060860182617750565b506080830151848203608086015261854182826176fe565b91505060a083015184820360a086015261855b82826176fe565b91505060c083015161857060c0860182617741565b5060e083015161858360e0860182617cf5565b50610100830151618598610100860182617d3d565b506101208301518482036101208601526185b282826176fe565b9150508091505092915050565b60006185cb83836184c9565b905092915050565b6000602082019050919050565b60006185eb8261849d565b6185f581856184a8565b935083602082028501618607856184b9565b8060005b85811015618643578484038952815161862485826185bf565b945061862f836185d3565b925060208a0199505060018101905061860b565b50829750879550505050505092915050565b600060408201905061866a6000830185618006565b818103602083015261867c81846185e0565b90509392505050565b6003811061869657618695617848565b5b50565b60008190506186a782618685565b919050565b60006186b782618699565b9050919050565b6186c7816186ac565b82525050565b600060a08301600083015184820360008601526186ea82826176fe565b9150506020830151848203602086015261870482826176fe565b91505060408301516187196040860182617750565b50606083015161872c60608601826186be565b50608083015161873f60808601826178b0565b508091505092915050565b6000602082019050818103600083015261876481846186cd565b905092915050565b600082825260208201905092915050565b7f496420697320456d707479000000000000000000000000000000000000000000600082015250565b60006187b3600b8361876c565b91506187be8261877d565b602082019050919050565b600060208201905081810360008301526187e2816187a6565b9050919050565b7f5573657220496420456d70747900000000000000000000000000000000000000600082015250565b600061881f600d8361876c565b915061882a826187e9565b602082019050919050565b6000602082019050818103600083015261884e81618812565b9050919050565b7f4e487b7100000000000000000000000000000000000000000000000000000000600052602260045260246000fd5b6000600282049050600182168061889c57607f821691505b6020821081036188af576188ae618855565b5b50919050565b7f5573657220456d61696c20456d70747900000000000000000000000000000000600082015250565b60006188eb60108361876c565b91506188f6826188b5565b602082019050919050565b6000602082019050818103600083015261891a816188de565b9050919050565b7f42616e6b206e6f7420666f756e64000000000000000000000000000000000000600082015250565b6000618957600e8361876c565b915061896282618921565b602082019050919050565b600060208201905081810360008301526189868161894a565b9050919050565b7f42616e6b206973206e6f74206163746976650000000000000000000000000000600082015250565b60006189c360128361876c565b91506189ce8261898d565b602082019050919050565b600060208201905081810360008301526189f2816189b6565b9050919050565b7f4b594320726571206e6f7420666f756e64000000000000000000000000000000600082015250565b6000618a2f60118361876c565b9150618a3a826189f9565b602082019050919050565b60006020820190508181036000830152618a5e81618a22565b9050919050565b7f55736572206e6f7420666f756e64000000000000000000000000000000000000600082015250565b6000618a9b600e8361876c565b9150618aa682618a65565b602082019050919050565b60006020820190508181036000830152618aca81618a8e565b9050919050565b600081905092915050565b6000618ae7826176a7565b618af18185618ad1565b9350618b018185602086016176c3565b80840191505092915050565b6000618b198284618adc565b915081905092915050565b60008190508160005260206000209050919050565b60006020601f8301049050919050565b600082821b905092915050565b600060088302618b867fffffffffffffffffffffffffffffffffffffffffffffffffffffffffffffffff82618b49565b618b908683618b49565b95508019841693508086168417925050509392505050565b6000819050919050565b6000618bcd618bc8618bc384617737565b618ba8565b617737565b9050919050565b6000819050919050565b618be783618bb2565b618bfb618bf382618bd4565b848454618b56565b825550505050565b600090565b618c10618c03565b618c1b818484618bde565b505050565b5b81811015618c3f57618c34600082618c08565b600181019050618c21565b5050565b601f821115618c8457618c5581618b24565b618c5e84618b39565b81016020851015618c6d578190505b618c81618c7985618b39565b830182618c20565b50505b505050565b600082821c905092915050565b6000618ca760001984600802618c89565b1980831691505092915050565b6000618cc08383618c96565b9150826002028217905092915050565b618cd9826176a7565b67ffffffffffffffff811115618cf257618cf1617982565b5b618cfc8254618884565b618d07828285618c43565b600060209050601f831160018114618d3a5760008415618d28578287015190505b618d328582618cb4565b865550618d9a565b601f198416618d4886618b24565b60005b82811015618d7057848901518255600182019150602085019450602081019050618d4b565b86831015618d8d5784890151618d89601f891682618c96565b8355505b6001600288020188555050505b505050505050565b6000618dad826176a7565b618db7818561876c565b9350618dc78185602086016176c3565b618dd0816176ed565b840191505092915050565b60008154618de881618884565b618df2818661876c565b94506001821660008114618e0d5760018114618e2357618e56565b60ff198316865281151560200286019350618e56565b618e2c85618b24565b60005b83811015618e4e57815481890152600182019150602081019050618e2f565b808801955050505b50505092915050565b60006060820190508181036000830152618e798186618da2565b90508181036020830152618e8d8185618ddb565b90508181036040830152618ea18184618ddb565b9050949350505050565b7f4f6e6c792061646d696e20697320616c6c6f7765640000000000000000000000600082015250565b6000618ee160158361876c565b9150618eec82618eab565b602082019050919050565b60006020820190508181036000830152618f1081618ed4565b9050919050565b7f4e487b7100000000000000000000000000000000000000000000000000000000600052603260045260246000fd5b7f4e487b7100000000000000000000000000000000000000000000000000000000600052601160045260246000fd5b6000618f8082617737565b91507fffffffffffffffffffffffffffffffffffffffffffffffffffffffffffffffff8203618fb257618fb1618f46565b5b600182019050919050565b7f5573657220646f65736e27742068617665204b59432072657100000000000000600082015250565b6000618ff360198361876c565b9150618ffe82618fbd565b602082019050919050565b6000602082019050818103600083015261902281618fe6565b9050919050565b6190328161763c565b82525050565b61904181617d2b565b82525050565b600060808201905081810360008301526190618187618da2565b90506190706020830186619029565b61907d6040830185619029565b61908a6060830184619038565b95945050505050565b7f5065726d697373696f6e206e6f7420666f756e64000000000000000000000000600082015250565b60006190c960148361876c565b91506190d482619093565b602082019050919050565b600060208201905081810360008301526190f8816190bc565b9050919050565b7f5573657220686164206b7963207265712e000000000000000000000000000000600082015250565b600061913560118361876c565b9150619140826190ff565b602082019050919050565b6000602082019050818103600083015261916481619128565b9050919050565b600060608201905081810360008301526191858186618da2565b905081810360208301526191998185618ddb565b905081810360408301526191ad8184618da2565b9050949350505050565b7f53656e64657220496420456d7074790000000000000000000000000000000000600082015250565b60006191ed600f8361876c565b91506191f8826191b7565b602082019050919050565b6000602082019050818103600083015261921c816191e0565b9050919050565b61922c81617ce3565b82525050565b6000608082019050818103600083015261924c8187618da2565b905061925b6020830186619029565b6192686040830185619029565b6192756060830184619223565b95945050505050565b7f42616e6b20496420456d70747900000000000000000000000000000000000000600082015250565b60006192b4600d8361876c565b91506192bf8261927e565b602082019050919050565b600060208201905081810360008301526192e3816192a7565b9050919050565b60008160601b9050919050565b6000619302826192ea565b9050919050565b6000619314826192f7565b9050919050565b61932c6193278261763c565b619309565b82525050565b600061933e828561931b565b60148201915061934e828461931b565b6014820191508190509392505050565b7f5265717565737420496420656d70747900000000000000000000000000000000600082015250565b600061939460108361876c565b915061939f8261935e565b602082019050919050565b600060208201905081810360008301526193c381619387565b9050919050565b7f496420697320656d707479000000000000000000000000000000000000000000600082015250565b6000619400600b8361876c565b915061940b826193ca565b602082019050919050565b6000602082019050818103600083015261942f816193f3565b9050919050565b7f42616e6b20657869737473000000000000000000000000000000000000000000600082015250565b600061946c600b8361876c565b915061947782619436565b602082019050919050565b6000602082019050818103600083015261949b8161945f565b9050919050565b60006080820190506194b76000830187619029565b81810360208301526194c98186618da2565b905081810360408301526194dd8185618da2565b905081810360608301526194f18184618da2565b905095945050505050565b60006060820190506195116000830186619029565b81810360208301526195238185618da2565b905081810360408301526195378184618da2565b9050949350505050565b7f504e2073686f756c64206265203e203000000000000000000000000000000000600082015250565b600061957760108361876c565b915061958282619541565b602082019050919050565b600060208201905081810360008301526195a68161956a565b9050919050565b60006060820190506195c26000830186619029565b81810360208301526195d48185618ddb565b905081810360408301526195e88184618da2565b9050949350505050565b60006040820190506196076000830185619029565b81810360208301526196198184618ddb565b90509392505050565b7f504e2073686f756c64206265203e207a65726f00000000000000000000000000600082015250565b600061965860138361876c565b915061966382619622565b602082019050919050565b600060208201905081810360008301526196878161964b565b9050919050565b60006196998261782b565b915061ffff82036196ad576196ac618f46565b5b600182019050919050565b7f437573746f6d657220496420456d707479000000000000000000000000000000600082015250565b60006196ee60118361876c565b91506196f9826196b8565b602082019050919050565b6000602082019050818103600083015261971d816196e1565b9050919050565b7f4e487b7100000000000000000000000000000000000000000000000000000000600052601260045260246000fd5b600061975e82617737565b915061976983617737565b92508261977957619778619724565b5b828206905092915050565b600061978f82617737565b915061979a83617737565b9250826197aa576197a9619724565b5b828204905092915050565b60006197c082617737565b91506197cb83617737565b92508282039050818111156197e3576197e2618f46565b5b92915050565b60006197f482617737565b91506197ff83617737565b925082820261980d81617737565b9150828204841483151761982457619823618f46565b5b509291505056fea2646970667358221220b2eed54cdae9ed55b99969b86bc99cc8b8a5216b5fdb6abfb973fcc3eb65bc3564736f6c63430008110033",
  "linkReferences": {},
  "deployedLinkReferences": {}
}